{
  "_format": "hh-sol-artifact-1",
  "contractName": "LottoFactory",
  "sourceName": "contracts/LottoFactory.sol",
  "abi": [
    {
      "inputs": [
        {
          "internalType": "address",
          "name": "vrfCoordinator",
          "type": "address"
        },
        {
          "internalType": "bytes32",
          "name": "gasLane",
          "type": "bytes32"
        },
        {
          "internalType": "uint256",
          "name": "subscriptionId",
          "type": "uint256"
        },
        {
          "internalType": "uint32",
          "name": "callbackGasLimit",
          "type": "uint32"
        }
      ],
      "stateMutability": "nonpayable",
      "type": "constructor"
    },
    {
      "inputs": [],
      "name": "OnlySimulatedBackend",
      "type": "error"
    },
    {
      "inputs": [
        {
          "internalType": "address",
          "name": "owner",
          "type": "address"
        }
      ],
      "name": "OwnableInvalidOwner",
      "type": "error"
    },
    {
      "inputs": [
        {
          "internalType": "address",
          "name": "account",
          "type": "address"
        }
      ],
      "name": "OwnableUnauthorizedAccount",
      "type": "error"
    },
    {
      "anonymous": false,
      "inputs": [
        {
          "indexed": true,
          "internalType": "address",
          "name": "previousOwner",
          "type": "address"
        },
        {
          "indexed": true,
          "internalType": "address",
          "name": "newOwner",
          "type": "address"
        }
      ],
      "name": "OwnershipTransferred",
      "type": "event"
    },
    {
      "anonymous": false,
      "inputs": [
        {
          "indexed": true,
          "internalType": "address",
          "name": "raffleAddress",
          "type": "address"
        }
      ],
      "name": "RaffleCreated",
      "type": "event"
    },
    {
      "inputs": [
        {
          "internalType": "uint256",
          "name": "subscriptionId",
          "type": "uint256"
        }
      ],
      "name": "acceptSubscriptionOwnerTransfer",
      "outputs": [],
      "stateMutability": "nonpayable",
      "type": "function"
    },
    {
      "inputs": [
        {
          "internalType": "address",
          "name": "token",
          "type": "address"
        }
      ],
      "name": "addSupportedToken",
      "outputs": [],
      "stateMutability": "nonpayable",
      "type": "function"
    },
    {
      "inputs": [
        {
          "internalType": "bytes",
          "name": "",
          "type": "bytes"
        }
      ],
      "name": "checkUpkeep",
      "outputs": [
        {
          "internalType": "bool",
          "name": "upkeepNeeded",
          "type": "bool"
        },
        {
          "internalType": "bytes",
          "name": "performData",
          "type": "bytes"
        }
      ],
      "stateMutability": "view",
      "type": "function"
    },
    {
      "inputs": [
        {
          "internalType": "uint256",
          "name": "ticketPrice",
          "type": "uint256"
        },
        {
          "internalType": "uint256",
          "name": "maxTickets",
          "type": "uint256"
        },
        {
          "internalType": "uint256",
          "name": "duration",
          "type": "uint256"
        },
        {
          "internalType": "address",
          "name": "rewardToken",
          "type": "address"
        },
        {
          "internalType": "uint32",
          "name": "numWinners",
          "type": "uint32"
        }
      ],
      "name": "createRaffle",
      "outputs": [],
      "stateMutability": "nonpayable",
      "type": "function"
    },
    {
      "inputs": [],
      "name": "getRaffles",
      "outputs": [
        {
          "internalType": "contract Raffle[]",
          "name": "",
          "type": "address[]"
        }
      ],
      "stateMutability": "view",
      "type": "function"
    },
    {
      "inputs": [],
      "name": "getSupportedTokens",
      "outputs": [
        {
          "internalType": "address[]",
          "name": "",
          "type": "address[]"
        }
      ],
      "stateMutability": "view",
      "type": "function"
    },
    {
      "inputs": [],
      "name": "i_callbackGasLimit",
      "outputs": [
        {
          "internalType": "uint32",
          "name": "",
          "type": "uint32"
        }
      ],
      "stateMutability": "view",
      "type": "function"
    },
    {
      "inputs": [],
      "name": "i_gasLane",
      "outputs": [
        {
          "internalType": "bytes32",
          "name": "",
          "type": "bytes32"
        }
      ],
      "stateMutability": "view",
      "type": "function"
    },
    {
      "inputs": [],
      "name": "i_vrfCoordinator",
      "outputs": [
        {
          "internalType": "address",
          "name": "",
          "type": "address"
        }
      ],
      "stateMutability": "view",
      "type": "function"
    },
    {
      "inputs": [
        {
          "internalType": "address",
          "name": "",
          "type": "address"
        }
      ],
      "name": "isRaffle",
      "outputs": [
        {
          "internalType": "bool",
          "name": "",
          "type": "bool"
        }
      ],
      "stateMutability": "view",
      "type": "function"
    },
    {
      "inputs": [
        {
          "internalType": "uint256",
          "name": "ticketPrice",
          "type": "uint256"
        },
        {
          "internalType": "uint256",
          "name": "maxTickets",
          "type": "uint256"
        },
        {
          "internalType": "uint256",
          "name": "duration",
          "type": "uint256"
        },
        {
          "internalType": "address",
          "name": "rewardToken",
          "type": "address"
        },
        {
          "internalType": "uint32",
          "name": "numWinners",
          "type": "uint32"
        }
      ],
      "name": "onRaffleEnded",
      "outputs": [],
      "stateMutability": "nonpayable",
      "type": "function"
    },
    {
      "inputs": [],
      "name": "owner",
      "outputs": [
        {
          "internalType": "address",
          "name": "",
          "type": "address"
        }
      ],
      "stateMutability": "view",
      "type": "function"
    },
    {
      "inputs": [
        {
          "internalType": "bytes",
          "name": "performData",
          "type": "bytes"
        }
      ],
      "name": "performUpkeep",
      "outputs": [],
      "stateMutability": "nonpayable",
      "type": "function"
    },
    {
      "inputs": [],
      "name": "renounceOwnership",
      "outputs": [],
      "stateMutability": "nonpayable",
      "type": "function"
    },
    {
      "inputs": [
        {
          "internalType": "uint256",
          "name": "",
          "type": "uint256"
        }
      ],
      "name": "s_raffles",
      "outputs": [
        {
          "internalType": "contract Raffle",
          "name": "",
          "type": "address"
        }
      ],
      "stateMutability": "view",
      "type": "function"
    },
    {
      "inputs": [],
      "name": "s_subscriptionId",
      "outputs": [
        {
          "internalType": "uint256",
          "name": "",
          "type": "uint256"
        }
      ],
      "stateMutability": "view",
      "type": "function"
    },
    {
      "inputs": [
        {
          "internalType": "uint256",
          "name": "",
          "type": "uint256"
        }
      ],
      "name": "s_supportedTokens",
      "outputs": [
        {
          "internalType": "address",
          "name": "",
          "type": "address"
        }
      ],
      "stateMutability": "view",
      "type": "function"
    },
    {
      "inputs": [
        {
          "internalType": "uint256",
          "name": "subscriptionId",
          "type": "uint256"
        }
      ],
      "name": "setSubscriptionId",
      "outputs": [],
      "stateMutability": "nonpayable",
      "type": "function"
    },
    {
      "inputs": [
        {
          "internalType": "address",
          "name": "newOwner",
          "type": "address"
        }
      ],
      "name": "transferOwnership",
      "outputs": [],
      "stateMutability": "nonpayable",
      "type": "function"
    }
  ],
  "bytecode": "0x60e060405234801561001057600080fd5b506040516133c13803806133c183398101604081905261002f916100d4565b338061005557604051631e4fbdf760e01b81526000600482015260240160405180910390fd5b61005e81610084565b506001600160a01b0390931660805260a09190915260035563ffffffff1660c052610135565b600080546001600160a01b038381166001600160a01b0319831681178455604051919092169283917f8be0079c531659141344cd1fd0a4f28419497f9722a3daafe3b4186f6b6457e09190a35050565b600080600080608085870312156100ea57600080fd5b84516001600160a01b038116811461010157600080fd5b809450506020850151925060408501519150606085015163ffffffff8116811461012a57600080fd5b939692955090935050565b60805160a05160c05161323a61018760003960008181610321015261085b01526000818161020401526108370152600081816102aa015281816106e70152818161081601526109c8015261323a6000f3fe60806040523480156200001157600080fd5b5060043610620001395760003560e01c80639b00e10a11620000bb578063c1e0d236116200007a578063c1e0d23614620002e3578063c51b869214620002fa578063d3c7c2c71462000311578063d757d027146200031b578063f2fde38b146200035957600080fd5b80639b00e10a146200023d578063a18723c51462000274578063a3719d9d146200028d578063aebc455014620002a4578063b2a7cac514620002cc57600080fd5b8063715018a61162000108578063715018a614620001b55780638ac0002114620001bf5780638da5cb5b14620001d85780638e879c8a14620001fe5780639433799c146200022657600080fd5b80634585e33b146200013e5780636beddf9d14620001575780636d69fcaf146200016e5780636e04ff0d1462000185575b600080fd5b620001556200014f36600462000b46565b62000370565b005b620001556200016836600462000bda565b62000422565b620001556200017f36600462000c3b565b620004b0565b6200019c6200019636600462000b46565b6200050c565b604051620001ac92919062000c86565b60405180910390f35b6200015562000620565b620001c960035481565b604051908152602001620001ac565b6000546001600160a01b03165b6040516001600160a01b039091168152602001620001ac565b620001c97f000000000000000000000000000000000000000000000000000000000000000081565b620001e56200023736600462000cc4565b62000638565b620002636200024e36600462000c3b565b60026020526000908152604090205460ff1681565b6040519015158152602001620001ac565b6200027e62000663565b604051620001ac919062000cde565b620001556200029e36600462000bda565b6200049a565b620001e57f000000000000000000000000000000000000000000000000000000000000000081565b62000155620002dd36600462000cc4565b620006c7565b62000155620002f436600462000cc4565b62000749565b620001e56200030b36600462000cc4565b62000758565b6200027e62000769565b620003437f000000000000000000000000000000000000000000000000000000000000000081565b60405163ffffffff9091168152602001620001ac565b620001556200036a36600462000c3b565b620007cb565b6000620003808284018462000cc4565b6001549091508110156200041d5760018181548110620003a457620003a462000d2d565b600091825260209091200154604051634585e33b60e01b81526001600160a01b0390911690634585e33b90620003e890600401602080825260009082015260400190565b600060405180830381600087803b1580156200040357600080fd5b505af115801562000418573d6000803e3d6000fd5b505050505b505050565b3360009081526002602052604090205460ff166200049a5760405162461bcd60e51b815260206004820152602a60248201527f4f6e6c792076616c696420726166666c65732063616e20747269676765722072604482015269195c1b1858d95b595b9d60b21b60648201526084015b60405180910390fd5b620004a985858585856200080f565b5050505050565b620004ba62000ab9565b600480546001810182556000919091527f8a35acfbc15ff81a39ae7d344fd709f28e8600b4aa8c65c6b64bfe7fe36bd19b0180546001600160a01b0319166001600160a01b0392909216919091179055565b6000606060005b60015481101562000604576001818154811062000534576200053462000d2d565b600091825260209091200154604051636e04ff0d60e01b81526001600160a01b0390911690636e04ff0d906200057890600401602080825260009082015260400190565b600060405180830381865afa925050508015620005b957506040513d6000823e601f3d908101601f19168201604052620005b6919081019062000d59565b60015b15620005fb578115620005f857600183604051602001620005dc91815260200190565b6040516020818303038152906040529450945050505062000619565b50505b60010162000513565b50506040805160208101909152600080825291505b9250929050565b6200062a62000ab9565b62000636600062000ae8565b565b600481815481106200064957600080fd5b6000918252602090912001546001600160a01b0316905081565b60606001805480602002602001604051908101604052809291908181526020018280548015620006bd57602002820191906000526020600020905b81546001600160a01b031681526001909101906020018083116200069e575b5050505050905090565b620006d162000ab9565b60405163b2a7cac560e01b8152600481018290527f00000000000000000000000000000000000000000000000000000000000000006001600160a01b03169063b2a7cac590602401600060405180830381600087803b1580156200073457600080fd5b505af1158015620004a9573d6000803e3d6000fd5b6200075362000ab9565b600355565b600181815481106200064957600080fd5b60606004805480602002602001604051908101604052809291908181526020018280548015620006bd576020028201919060005260206000209081546001600160a01b031681526001909101906020018083116200069e575050505050905090565b620007d562000ab9565b6001600160a01b0381166200080157604051631e4fbdf760e01b81526000600482015260240162000491565b6200080c8162000ae8565b50565b60008584867f00000000000000000000000000000000000000000000000000000000000000007f00000000000000000000000000000000000000000000000000000000000000006003547f00000000000000000000000000000000000000000000000000000000000000006200088d6000546001600160a01b031690565b8a8a306040516200089e9062000b38565b9a8b5260208b019990995260408a01979097526001600160a01b0395861660608a0152608089019490945260a088019290925263ffffffff90811660c088015290831660e08701529082166101008601529091166101208401521661014082015261016001604051809103906000f08015801562000920573d6000803e3d6000fd5b509050806001600160a01b031663f2fde38b620009456000546001600160a01b031690565b6040516001600160e01b031960e084901b1681526001600160a01b039091166004820152602401600060405180830381600087803b1580156200098757600080fd5b505af11580156200099c573d6000803e3d6000fd5b5050600354604051632fb1302360e21b815260048101919091526001600160a01b0384811660248301527f000000000000000000000000000000000000000000000000000000000000000016925063bec4c08c9150604401600060405180830381600087803b15801562000a0f57600080fd5b505af115801562000a24573d6000803e3d6000fd5b50506001805480820182557fb10e2d527612073b26eecdfd717e6a320cf44b4afac2b0732d9fcbe2b7fa0cf60180546001600160a01b0319166001600160a01b038616908117909155600081815260026020526040808220805460ff191690941790935591519093507f54ad4cc1960f9b16b4a7fd9f5ee7c05b4de5672cb94bc1dbad3de1ed291c248b9250a2505050505050565b6000546001600160a01b03163314620006365760405163118cdaa760e01b815233600482015260240162000491565b600080546001600160a01b038381166001600160a01b0319831681178455604051919092169283917f8be0079c531659141344cd1fd0a4f28419497f9722a3daafe3b4186f6b6457e09190a35050565b6123d68062000e2f83390190565b6000806020838503121562000b5a57600080fd5b823567ffffffffffffffff8082111562000b7357600080fd5b818501915085601f83011262000b8857600080fd5b81358181111562000b9857600080fd5b86602082850101111562000bab57600080fd5b60209290920196919550909350505050565b80356001600160a01b038116811462000bd557600080fd5b919050565b600080600080600060a0868803121562000bf357600080fd5b85359450602086013593506040860135925062000c136060870162000bbd565b9150608086013563ffffffff8116811462000c2d57600080fd5b809150509295509295909350565b60006020828403121562000c4e57600080fd5b62000c598262000bbd565b9392505050565b60005b8381101562000c7d57818101518382015260200162000c63565b50506000910152565b8215158152604060208201526000825180604084015262000caf81606085016020870162000c60565b601f01601f1916919091016060019392505050565b60006020828403121562000cd757600080fd5b5035919050565b6020808252825182820181905260009190848201906040850190845b8181101562000d215783516001600160a01b03168352928401929184019160010162000cfa565b50909695505050505050565b634e487b7160e01b600052603260045260246000fd5b634e487b7160e01b600052604160045260246000fd5b6000806040838503121562000d6d57600080fd5b8251801515811462000d7e57600080fd5b602084015190925067ffffffffffffffff8082111562000d9d57600080fd5b818501915085601f83011262000db257600080fd5b81518181111562000dc75762000dc762000d43565b604051601f8201601f19908116603f0116810190838211818310171562000df25762000df262000d43565b8160405282815288602084870101111562000e0c57600080fd5b62000e1f83602083016020880162000c60565b8095505050505050925092905056fe6101a06040523480156200001257600080fd5b50604051620023d6380380620023d6833981016040819052620000359162000228565b8733806000816200008d5760405162461bcd60e51b815260206004820152601860248201527f43616e6e6f7420736574206f776e657220746f207a65726f000000000000000060448201526064015b60405180910390fd5b600080546001600160a01b0319166001600160a01b0384811691909117909155811615620000c057620000c0816200014b565b5050600280546001600160a01b039384166001600160a01b03199182161790915560016003556101009d909d525060e09a909a526101209890985260a09590955260809390935263ffffffff91821660c052600480549188169190981617909655841661016052909316610140521661018052506007805460ff60a01b1916905542600555620002de565b336001600160a01b03821603620001a55760405162461bcd60e51b815260206004820152601760248201527f43616e6e6f74207472616e7366657220746f2073656c66000000000000000000604482015260640162000084565b600180546001600160a01b0319166001600160a01b0383811691821790925560008054604051929316917fed8889f560326eb138920d842192f0eb3dd22b4f139c87a2c57538e05bae12789190a350565b80516001600160a01b03811681146200020e57600080fd5b919050565b805163ffffffff811681146200020e57600080fd5b60008060008060008060008060008060006101608c8e0312156200024b57600080fd5b8b519a5060208c0151995060408c015198506200026b60608d01620001f6565b975060808c0151965060a08c015195506200028960c08d0162000213565b94506200029960e08d01620001f6565b9350620002aa6101008d01620001f6565b9250620002bb6101208d0162000213565b9150620002cc6101408d01620001f6565b90509295989b509295989b9093969950565b60805160a05160c05160e0516101005161012051610140516101605161018051611fca6200040c60003960006115910152600081816102ac015281816104de0152818161055c0152818161067c015281816106be015281816108480152818161089501528181610af301528181610b3b0152818161119c0152818161130e0152818161137b015261153d0152600081816101d901528181610bde01528181610c1001528181610d920152818161156501526117740152600081816102790152818161049f0152818161061e0152818161081f01526114e90152600081816101330152818161050c0152818161058001526114c3015260008181610360015281816107be015281816107e8015261150f0152600061174c015260006116f4015260006117170152611fca6000f3fe60806040526004361061011f5760003560e01c80636e04ff0d116100a05780639eccacf6116100645780639eccacf614610384578063c1c244e8146103a4578063e55ae4e8146103b9578063edca914c146103d9578063f2fde38b146103e157600080fd5b80636e04ff0d146102d057806379ba5097146102fe5780638da5cb5b146103135780638ea981171461033157806391ad27b41461035157600080fd5b80634585e33b116100e75780634585e33b14610203578063473f1ddc1461022357806355c9e9261461025557806362c95aa11461026a57806369940d791461029d57600080fd5b806309bc33a714610124578063115cbaf5146101665780631fe543e31461018d57806323aa56b0146101af57806339624847146101c2575b600080fd5b34801561013057600080fd5b507f00000000000000000000000000000000000000000000000000000000000000005b6040519081526020015b60405180910390f35b34801561017257600080fd5b50600754600160a01b900460ff1660405161015d9190611b13565b34801561019957600080fd5b506101ad6101a8366004611b82565b610401565b005b6101ad6101bd366004611c34565b610454565b3480156101ce57600080fd5b5060405163ffffffff7f000000000000000000000000000000000000000000000000000000000000000016815260200161015d565b34801561020f57600080fd5b506101ad61021e366004611c64565b610658565b34801561022f57600080fd5b506007546001600160a01b03165b6040516001600160a01b03909116815260200161015d565b34801561026157600080fd5b50600854610153565b34801561027657600080fd5b507f0000000000000000000000000000000000000000000000000000000000000000610153565b3480156102a957600080fd5b507f000000000000000000000000000000000000000000000000000000000000000061023d565b3480156102dc57600080fd5b506102f06102eb366004611cd6565b610790565b60405161015d929190611db1565b34801561030a57600080fd5b506101ad610958565b34801561031f57600080fd5b506000546001600160a01b031661023d565b34801561033d57600080fd5b506101ad61034c366004611c34565b610a02565b34801561035d57600080fd5b507f0000000000000000000000000000000000000000000000000000000000000000610153565b34801561039057600080fd5b5060025461023d906001600160a01b031681565b3480156103b057600080fd5b50600554610153565b3480156103c557600080fd5b5061023d6103d4366004611dd4565b610a9b565b6101ad610acb565b3480156103ed57600080fd5b506101ad6103fc366004611c34565b610ad6565b6002546001600160a01b031633146104465760025460405163073e64fd60e21b81523360048201526001600160a01b0390911660248201526044015b60405180910390fd5b6104508282610ae7565b5050565b61045c6115fd565b6000600754600160a01b900460ff16600181111561047c5761047c611afd565b1461049a5760405163349289c560e21b815260040160405180910390fd5b6008547f0000000000000000000000000000000000000000000000000000000000000000116104dc57604051636af9e6d960e11b815260040160405180910390fd5b7f00000000000000000000000000000000000000000000000000000000000000006001600160a01b031661054f577f0000000000000000000000000000000000000000000000000000000000000000341461054a5760405163066d781f60e01b815260040160405180910390fd5b6105a4565b6105a46001600160a01b037f00000000000000000000000000000000000000000000000000000000000000001633307f0000000000000000000000000000000000000000000000000000000000000000611627565b6008805460018101825560009182527ff3f7a9fe364faab93b216da50a3214154f22a0a2b415b23a84c8169e8b636ee30180546001600160a01b0319166001600160a01b03841690811790915560405190917f0805e1d667bddb8a95f0f09880cf94f403fb596ce79928d9f29b74203ba284d491a26008547f0000000000000000000000000000000000000000000000000000000000000000900361064b5761064b611694565b6106556001600355565b50565b600061067260405180602001604052806000815250610790565b50905080610783577f00000000000000000000000000000000000000000000000000000000000000006001600160a01b031615610736576040516370a0823160e01b81523060048201527f00000000000000000000000000000000000000000000000000000000000000006001600160a01b0316906370a0823190602401602060405180830381865afa15801561070d573d6000803e3d6000fd5b505050506040513d601f19601f820116820180604052508101906107319190611ded565b610738565b475b600854600754600160a01b900460ff16600181111561075957610759611afd565b604051632c2193d560e11b815260048101939093526024830191909152604482015260640161043d565b61078b611694565b505050565b600060606000600760149054906101000a900460ff1660018111156107b7576107b7611afd565b15905060007f00000000000000000000000000000000000000000000000000000000000000001580159061081757507f0000000000000000000000000000000000000000000000000000000000000000600554426108159190611e1c565b115b6008549091507f000000000000000000000000000000000000000000000000000000000000000081101590151560007f00000000000000000000000000000000000000000000000000000000000000006001600160a01b031661087d575047151561090c565b6040516370a0823160e01b81523060048201526000907f00000000000000000000000000000000000000000000000000000000000000006001600160a01b0316906370a0823190602401602060405180830381865afa1580156108e4573d6000803e3d6000fd5b505050506040513d601f19601f820116820180604052508101906109089190611ded565b1190505b84801561091d5750838061091d5750825b80156109265750815b801561092f5750805b60408051808201909152600381526203078360ec1b602082015290999098509650505050505050565b6001546001600160a01b031633146109ab5760405162461bcd60e51b815260206004820152601660248201527526bab9ba10313290383937b837b9b2b21037bbb732b960511b604482015260640161043d565b60008054336001600160a01b0319808316821784556001805490911690556040516001600160a01b0390921692909183917f8be0079c531659141344cd1fd0a4f28419497f9722a3daafe3b4186f6b6457e091a350565b6000546001600160a01b03163314801590610a2857506002546001600160a01b03163314155b15610a795733610a406000546001600160a01b031690565b60025460405163061db9c160e01b81526001600160a01b039384166004820152918316602483015291909116604482015260640161043d565b600280546001600160a01b0319166001600160a01b0392909216919091179055565b600060088281548110610ab057610ab0611e35565b6000918252602090912001546001600160a01b031692915050565b610ad433610454565b565b610ade61185a565b610655816118ad565b610aef6115fd565b60007f00000000000000000000000000000000000000000000000000000000000000006001600160a01b0316610b26575047610bb1565b6040516370a0823160e01b81523060048201527f00000000000000000000000000000000000000000000000000000000000000006001600160a01b0316906370a0823190602401602060405180830381865afa158015610b8a573d6000803e3d6000fd5b505050506040513d601f19601f82011682018060405250810190610bae9190611ded565b90505b60006064610bc0836005611e4b565b610bca9190611e78565b90506000610bd88284611e1c565b905060007f000000000000000000000000000000000000000000000000000000000000000063ffffffff1660088054905010610c3a577f000000000000000000000000000000000000000000000000000000000000000063ffffffff16610c3e565b6008545b905060008167ffffffffffffffff811115610c5b57610c5b611b3b565b604051908082528060200260200182016040528015610c84578160200160208202803683370190505b50905060008267ffffffffffffffff811115610ca257610ca2611b3b565b604051908082528060200260200182016040528015610ccb578160200160208202803683370190505b50905082600103610d8557600060088054905088600081518110610cf157610cf1611e35565b6020026020010151610d039190611e8c565b905060088181548110610d1857610d18611e35565b600091825260208220015484516001600160a01b03909116918591610d3f57610d3f611e35565b60200260200101906001600160a01b031690816001600160a01b0316815250508482600081518110610d7357610d73611e35565b6020026020010181815250505061115f565b826003148015610dbb57507f000000000000000000000000000000000000000000000000000000000000000063ffffffff166003145b15610fec576064610dcd87603c611e4b565b610dd79190611e78565b81600081518110610dea57610dea611e35565b60209081029190910101526064610e0287601e611e4b565b610e0c9190611e78565b81600181518110610e1f57610e1f611e35565b60209081029190910101526064610e37876005611e4b565b610e419190611e78565b81600281518110610e5457610e54611e35565b60209081029190910101526008805488518990600090610e7657610e76611e35565b6020026020010151610e889190611e8c565b81548110610e9857610e98611e35565b600091825260208220015483516001600160a01b03909116918491610ebf57610ebf611e35565b6001600160a01b039092166020928302919091019091015260088054885189906001908110610ef057610ef0611e35565b6020026020010151610f029190611e8c565b81548110610f1257610f12611e35565b9060005260206000200160009054906101000a90046001600160a01b031682600181518110610f4357610f43611e35565b6001600160a01b039092166020928302919091019091015260088054885189906002908110610f7457610f74611e35565b6020026020010151610f869190611e8c565b81548110610f9657610f96611e35565b9060005260206000200160009054906101000a90046001600160a01b031682600281518110610fc757610fc7611e35565b60200260200101906001600160a01b031690816001600160a01b03168152505061115f565b6000610ff88486611e78565b905060005b8481101561115c578183828151811061101857611018611e35565b60200260200101818152505088518110156110bc57600880548a518b908490811061104557611045611e35565b60200260200101516110579190611e8c565b8154811061106757611067611e35565b9060005260206000200160009054906101000a90046001600160a01b031684828151811061109757611097611e35565b60200260200101906001600160a01b031690816001600160a01b031681525050611154565b60088080549050828b6000815181106110d7576110d7611e35565b60200260200101516110e99190611ea0565b6110f39190611e8c565b8154811061110357611103611e35565b9060005260206000200160009054906101000a90046001600160a01b031684828151811061113357611133611e35565b60200260200101906001600160a01b031690816001600160a01b0316815250505b600101610ffd565b50505b604080516000815260208101918290525161117c91600891611a69565b50426005556007805460ff60a01b1916905561119a60066000611ace565b7f00000000000000000000000000000000000000000000000000000000000000006001600160a01b03166112fd576004546040516000916001600160a01b03169087908381818185875af1925050503d8060008114611215576040519150601f19603f3d011682016040523d82523d6000602084013e61121a565b606091505b505090508061123c5760405163a1d04b3960e01b815260040160405180910390fd5b60005b848110156112f657600084828151811061125b5761125b611e35565b60200260200101516001600160a01b031684838151811061127e5761127e611e35565b602002602001015160405160006040518083038185875af1925050503d80600081146112c6576040519150601f19603f3d011682016040523d82523d6000602084013e6112cb565b606091505b50509050806112ed5760405163a1d04b3960e01b815260040160405180910390fd5b5060010161123f565b50506113bc565b600454611337906001600160a01b037f00000000000000000000000000000000000000000000000000000000000000008116911687611956565b60005b838110156113ba576113b283828151811061135757611357611e35565b602002602001015183838151811061137157611371611e35565b60200260200101517f00000000000000000000000000000000000000000000000000000000000000006001600160a01b03166119569092919063ffffffff16565b60010161133a565b505b7ffc49ebbec72d32bd8b287a8ec3c43bf2c1d47fb9b36867819560bcf3c320901382826040516113ed929190611eb3565b60405180910390a182156114b4578160008151811061140e5761140e611e35565b6020026020010151600760006101000a8154816001600160a01b0302191690836001600160a01b031602179055508160008151811061144f5761144f611e35565b60200260200101516001600160a01b03167f64791dbae5677392ba76761a5273633cec8f1d9d8cfe808da7bac6ef16a880be8260008151811061149457611494611e35565b60200260200101516040516114ab91815260200190565b60405180910390a25b604051636beddf9d60e01b81527f000000000000000000000000000000000000000000000000000000000000000060048201527f000000000000000000000000000000000000000000000000000000000000000060248201527f000000000000000000000000000000000000000000000000000000000000000060448201526001600160a01b037f0000000000000000000000000000000000000000000000000000000000000000811660648301527f000000000000000000000000000000000000000000000000000000000000000063ffffffff1660848301527f00000000000000000000000000000000000000000000000000000000000000001690636beddf9d9060a401600060405180830381600087803b1580156115d557600080fd5b505af11580156115e9573d6000803e3d6000fd5b505050505050505050506104506001600355565b60026003540361162057604051633ee5aeb560e01b815260040160405180910390fd5b6002600355565b6040516001600160a01b03848116602483015283811660448301526064820183905261168e9186918216906323b872dd906084015b604051602081830303815290604052915060e01b6020820180516001600160e01b038381831617835250505050611987565b50505050565b6000600754600160a01b900460ff1660018111156116b4576116b4611afd565b146116d25760405163349289c560e21b815260040160405180910390fd5b6007805460ff60a01b1916600160a01b1790556002546040805160c0810182527f000000000000000000000000000000000000000000000000000000000000000081527f000000000000000000000000000000000000000000000000000000000000000060208083019190915260038284015263ffffffff7f0000000000000000000000000000000000000000000000000000000000000000811660608401527f00000000000000000000000000000000000000000000000000000000000000001660808301528251908101909252600182526000926001600160a01b031691639b1c385e919060a08201906117c7906119f8565b8152506040518263ffffffff1660e01b81526004016117e69190611f37565b6020604051808303816000875af1158015611805573d6000803e3d6000fd5b505050506040513d601f19601f820116820180604052508101906118299190611ded565b60405190915081907fcd6e45c8998311cab7e9d4385596cac867e20a0587194b954fa3a731c93ce78b90600090a250565b6000546001600160a01b03163314610ad45760405162461bcd60e51b815260206004820152601660248201527527b7363c9031b0b63630b1363290313c9037bbb732b960511b604482015260640161043d565b336001600160a01b038216036119055760405162461bcd60e51b815260206004820152601760248201527f43616e6e6f74207472616e7366657220746f2073656c66000000000000000000604482015260640161043d565b600180546001600160a01b0319166001600160a01b0383811691821790925560008054604051929316917fed8889f560326eb138920d842192f0eb3dd22b4f139c87a2c57538e05bae12789190a350565b6040516001600160a01b0383811660248301526044820183905261078b91859182169063a9059cbb9060640161165c565b600080602060008451602086016000885af1806119aa576040513d6000823e3d81fd5b50506000513d915081156119c25780600114156119cf565b6001600160a01b0384163b155b1561168e57604051635274afe760e01b81526001600160a01b038516600482015260240161043d565b60607f92fd13387c7fe7befbc38d303d6468778fb9731bc4583f17d92989c6fcfdeaaa82604051602401611a3191511515815260200190565b60408051601f198184030181529190526020810180516001600160e01b03166001600160e01b03199093169290921790915292915050565b828054828255906000526020600020908101928215611abe579160200282015b82811115611abe57825182546001600160a01b0319166001600160a01b03909116178255602090920191600190910190611a89565b50611aca929150611ae8565b5090565b508054600082559060005260206000209081019061065591905b5b80821115611aca5760008155600101611ae9565b634e487b7160e01b600052602160045260246000fd5b6020810160028310611b3557634e487b7160e01b600052602160045260246000fd5b91905290565b634e487b7160e01b600052604160045260246000fd5b604051601f8201601f1916810167ffffffffffffffff81118282101715611b7a57611b7a611b3b565b604052919050565b60008060408385031215611b9557600080fd5b8235915060208084013567ffffffffffffffff80821115611bb557600080fd5b818601915086601f830112611bc957600080fd5b813581811115611bdb57611bdb611b3b565b8060051b9150611bec848301611b51565b8181529183018401918481019089841115611c0657600080fd5b938501935b83851015611c2457843582529385019390850190611c0b565b8096505050505050509250929050565b600060208284031215611c4657600080fd5b81356001600160a01b0381168114611c5d57600080fd5b9392505050565b60008060208385031215611c7757600080fd5b823567ffffffffffffffff80821115611c8f57600080fd5b818501915085601f830112611ca357600080fd5b813581811115611cb257600080fd5b866020828501011115611cc457600080fd5b60209290920196919550909350505050565b60006020808385031215611ce957600080fd5b823567ffffffffffffffff80821115611d0157600080fd5b818501915085601f830112611d1557600080fd5b813581811115611d2757611d27611b3b565b611d39601f8201601f19168501611b51565b91508082528684828501011115611d4f57600080fd5b8084840185840137600090820190930192909252509392505050565b6000815180845260005b81811015611d9157602081850181015186830182015201611d75565b506000602082860101526020601f19601f83011685010191505092915050565b8215158152604060208201526000611dcc6040830184611d6b565b949350505050565b600060208284031215611de657600080fd5b5035919050565b600060208284031215611dff57600080fd5b5051919050565b634e487b7160e01b600052601160045260246000fd5b81810381811115611e2f57611e2f611e06565b92915050565b634e487b7160e01b600052603260045260246000fd5b8082028115828204841417611e2f57611e2f611e06565b634e487b7160e01b600052601260045260246000fd5b600082611e8757611e87611e62565b500490565b600082611e9b57611e9b611e62565b500690565b80820180821115611e2f57611e2f611e06565b604080825283519082018190526000906020906060840190828701845b82811015611ef55781516001600160a01b031684529284019290840190600101611ed0565b5050508381038285015284518082528583019183019060005b81811015611f2a57835183529284019291840191600101611f0e565b5090979650505050505050565b60208152815160208201526020820151604082015261ffff60408301511660608201526000606083015163ffffffff80821660808501528060808601511660a0850152505060a083015160c080840152611dcc60e0840182611d6b56fea264697066735822122087a83672175773c9ae24946493657f543de4b6b740d9f8e9d0a5efaaf9c582ca64736f6c63430008180033a26469706673582212202685275af4eb0a0f13cb9c51d5fcef2a6241a8f48c92eb6bd1f2129bdf549f1e64736f6c63430008180033",
  "linkReferences": {},
  "deployedLinkReferences": {}
}