{
  "_format": "hh-sol-artifact-1",
  "contractName": "LottoFactory",
  "sourceName": "contracts/LottoFactory.sol",
  "abi": [
    {
      "inputs": [
        {
          "internalType": "address",
          "name": "vrfCoordinator",
          "type": "address"
        },
        {
          "internalType": "bytes32",
          "name": "gasLane",
          "type": "bytes32"
        },
        {
          "internalType": "uint256",
          "name": "subscriptionId",
          "type": "uint256"
        },
        {
          "internalType": "uint32",
          "name": "callbackGasLimit",
          "type": "uint32"
        }
      ],
      "stateMutability": "nonpayable",
      "type": "constructor"
    },
    {
      "inputs": [],
      "name": "OnlySimulatedBackend",
      "type": "error"
    },
    {
      "inputs": [
        {
          "internalType": "address",
          "name": "owner",
          "type": "address"
        }
      ],
      "name": "OwnableInvalidOwner",
      "type": "error"
    },
    {
      "inputs": [
        {
          "internalType": "address",
          "name": "account",
          "type": "address"
        }
      ],
      "name": "OwnableUnauthorizedAccount",
      "type": "error"
    },
    {
      "anonymous": false,
      "inputs": [
        {
          "indexed": true,
          "internalType": "address",
          "name": "previousOwner",
          "type": "address"
        },
        {
          "indexed": true,
          "internalType": "address",
          "name": "newOwner",
          "type": "address"
        }
      ],
      "name": "OwnershipTransferred",
      "type": "event"
    },
    {
      "anonymous": false,
      "inputs": [
        {
          "indexed": true,
          "internalType": "address",
          "name": "raffleAddress",
          "type": "address"
        }
      ],
      "name": "RaffleCreated",
      "type": "event"
    },
    {
      "anonymous": false,
      "inputs": [
        {
          "indexed": true,
          "internalType": "address",
          "name": "raffle",
          "type": "address"
        },
        {
          "indexed": true,
          "internalType": "address",
          "name": "winner",
          "type": "address"
        },
        {
          "indexed": false,
          "internalType": "uint256",
          "name": "amount",
          "type": "uint256"
        }
      ],
      "name": "WinnerPicked",
      "type": "event"
    },
    {
      "inputs": [
        {
          "internalType": "uint256",
          "name": "subscriptionId",
          "type": "uint256"
        }
      ],
      "name": "acceptSubscriptionOwnerTransfer",
      "outputs": [],
      "stateMutability": "nonpayable",
      "type": "function"
    },
    {
      "inputs": [
        {
          "internalType": "address",
          "name": "token",
          "type": "address"
        }
      ],
      "name": "addSupportedToken",
      "outputs": [],
      "stateMutability": "nonpayable",
      "type": "function"
    },
    {
      "inputs": [
        {
          "internalType": "bytes",
          "name": "",
          "type": "bytes"
        }
      ],
      "name": "checkUpkeep",
      "outputs": [
        {
          "internalType": "bool",
          "name": "upkeepNeeded",
          "type": "bool"
        },
        {
          "internalType": "bytes",
          "name": "performData",
          "type": "bytes"
        }
      ],
      "stateMutability": "view",
      "type": "function"
    },
    {
      "inputs": [
        {
          "internalType": "uint256",
          "name": "ticketPrice",
          "type": "uint256"
        },
        {
          "internalType": "uint256",
          "name": "maxTickets",
          "type": "uint256"
        },
        {
          "internalType": "uint256",
          "name": "duration",
          "type": "uint256"
        },
        {
          "internalType": "address",
          "name": "rewardToken",
          "type": "address"
        },
        {
          "internalType": "uint32",
          "name": "numWinners",
          "type": "uint32"
        }
      ],
      "name": "createRaffle",
      "outputs": [],
      "stateMutability": "nonpayable",
      "type": "function"
    },
    {
      "inputs": [],
      "name": "getRaffles",
      "outputs": [
        {
          "internalType": "contract Raffle[]",
          "name": "",
          "type": "address[]"
        }
      ],
      "stateMutability": "view",
      "type": "function"
    },
    {
      "inputs": [],
      "name": "getSupportedTokens",
      "outputs": [
        {
          "internalType": "address[]",
          "name": "",
          "type": "address[]"
        }
      ],
      "stateMutability": "view",
      "type": "function"
    },
    {
      "inputs": [],
      "name": "i_callbackGasLimit",
      "outputs": [
        {
          "internalType": "uint32",
          "name": "",
          "type": "uint32"
        }
      ],
      "stateMutability": "view",
      "type": "function"
    },
    {
      "inputs": [],
      "name": "i_gasLane",
      "outputs": [
        {
          "internalType": "bytes32",
          "name": "",
          "type": "bytes32"
        }
      ],
      "stateMutability": "view",
      "type": "function"
    },
    {
      "inputs": [],
      "name": "i_vrfCoordinator",
      "outputs": [
        {
          "internalType": "address",
          "name": "",
          "type": "address"
        }
      ],
      "stateMutability": "view",
      "type": "function"
    },
    {
      "inputs": [
        {
          "internalType": "address",
          "name": "",
          "type": "address"
        }
      ],
      "name": "isRaffle",
      "outputs": [
        {
          "internalType": "bool",
          "name": "",
          "type": "bool"
        }
      ],
      "stateMutability": "view",
      "type": "function"
    },
    {
      "inputs": [
        {
          "internalType": "address",
          "name": "winner",
          "type": "address"
        },
        {
          "internalType": "uint256",
          "name": "amount",
          "type": "uint256"
        },
        {
          "internalType": "uint256",
          "name": "ticketPrice",
          "type": "uint256"
        },
        {
          "internalType": "uint256",
          "name": "maxTickets",
          "type": "uint256"
        },
        {
          "internalType": "uint256",
          "name": "duration",
          "type": "uint256"
        },
        {
          "internalType": "address",
          "name": "rewardToken",
          "type": "address"
        },
        {
          "internalType": "uint32",
          "name": "numWinners",
          "type": "uint32"
        }
      ],
      "name": "onRaffleEnded",
      "outputs": [],
      "stateMutability": "nonpayable",
      "type": "function"
    },
    {
      "inputs": [],
      "name": "owner",
      "outputs": [
        {
          "internalType": "address",
          "name": "",
          "type": "address"
        }
      ],
      "stateMutability": "view",
      "type": "function"
    },
    {
      "inputs": [
        {
          "internalType": "bytes",
          "name": "performData",
          "type": "bytes"
        }
      ],
      "name": "performUpkeep",
      "outputs": [],
      "stateMutability": "nonpayable",
      "type": "function"
    },
    {
      "inputs": [],
      "name": "renounceOwnership",
      "outputs": [],
      "stateMutability": "nonpayable",
      "type": "function"
    },
    {
      "inputs": [
        {
          "internalType": "uint256",
          "name": "",
          "type": "uint256"
        }
      ],
      "name": "s_raffles",
      "outputs": [
        {
          "internalType": "contract Raffle",
          "name": "",
          "type": "address"
        }
      ],
      "stateMutability": "view",
      "type": "function"
    },
    {
      "inputs": [],
      "name": "s_subscriptionId",
      "outputs": [
        {
          "internalType": "uint256",
          "name": "",
          "type": "uint256"
        }
      ],
      "stateMutability": "view",
      "type": "function"
    },
    {
      "inputs": [
        {
          "internalType": "uint256",
          "name": "",
          "type": "uint256"
        }
      ],
      "name": "s_supportedTokens",
      "outputs": [
        {
          "internalType": "address",
          "name": "",
          "type": "address"
        }
      ],
      "stateMutability": "view",
      "type": "function"
    },
    {
      "inputs": [
        {
          "internalType": "uint256",
          "name": "subscriptionId",
          "type": "uint256"
        }
      ],
      "name": "setSubscriptionId",
      "outputs": [],
      "stateMutability": "nonpayable",
      "type": "function"
    },
    {
      "inputs": [
        {
          "internalType": "address",
          "name": "newOwner",
          "type": "address"
        }
      ],
      "name": "transferOwnership",
      "outputs": [],
      "stateMutability": "nonpayable",
      "type": "function"
    }
  ],
  "bytecode": "0x60e060405234801561001057600080fd5b5060405161389b38038061389b83398101604081905261002f916100d4565b338061005557604051631e4fbdf760e01b81526000600482015260240160405180910390fd5b61005e81610084565b506001600160a01b0390931660805260a09190915260035563ffffffff1660c052610135565b600080546001600160a01b038381166001600160a01b0319831681178455604051919092169283917f8be0079c531659141344cd1fd0a4f28419497f9722a3daafe3b4186f6b6457e09190a35050565b600080600080608085870312156100ea57600080fd5b84516001600160a01b038116811461010157600080fd5b809450506020850151925060408501519150606085015163ffffffff8116811461012a57600080fd5b939692955090935050565b60805160a05160c051613714610187600039600081816103210152610a3a0152600081816102040152610a160152600081816102aa01528181610736015281816109f50152610ba701526137146000f3fe60806040523480156200001157600080fd5b5060043610620001395760003560e01c80639b00e10a11620000bb578063c1e0d236116200007a578063c1e0d23614620002e3578063c51b869214620002fa578063d3c7c2c71462000311578063d757d027146200031b578063f2fde38b146200035957600080fd5b80639b00e10a146200023d578063a18723c51462000274578063a3719d9d146200028d578063aebc455014620002a4578063b2a7cac514620002cc57600080fd5b8063829945ff1162000108578063829945ff14620001a85780638ac0002114620001bf5780638da5cb5b14620001d85780638e879c8a14620001fe5780639433799c146200022657600080fd5b80634585e33b146200013e5780636d69fcaf14620001575780636e04ff0d146200016e578063715018a6146200019e575b600080fd5b620001556200014f36600462000ca6565b62000370565b005b620001556200016836600462000d3a565b62000422565b620001856200017f36600462000ca6565b6200047e565b6040516200019592919062000d85565b60405180910390f35b6200015562000592565b62000155620001b936600462000dd8565b620005aa565b620001c960035481565b60405190815260200162000195565b6000546001600160a01b03165b6040516001600160a01b03909116815260200162000195565b620001c97f000000000000000000000000000000000000000000000000000000000000000081565b620001e56200023736600462000e49565b62000671565b620002636200024e36600462000d3a565b60026020526000908152604090205460ff1681565b604051901515815260200162000195565b6200027e6200069c565b60405162000195919062000e63565b620001556200029e36600462000eb2565b62000700565b620001e57f000000000000000000000000000000000000000000000000000000000000000081565b62000155620002dd36600462000e49565b62000716565b62000155620002f436600462000e49565b62000798565b620001e56200030b36600462000e49565b620007a7565b6200027e620007b8565b620003437f000000000000000000000000000000000000000000000000000000000000000081565b60405163ffffffff909116815260200162000195565b620001556200036a36600462000d3a565b6200081a565b6000620003808284018462000e49565b6001549091508110156200041d5760018181548110620003a457620003a462000f07565b600091825260209091200154604051634585e33b60e01b81526001600160a01b0390911690634585e33b90620003e890600401602080825260009082015260400190565b600060405180830381600087803b1580156200040357600080fd5b505af115801562000418573d6000803e3d6000fd5b505050505b505050565b6200042c6200085e565b600480546001810182556000919091527f8a35acfbc15ff81a39ae7d344fd709f28e8600b4aa8c65c6b64bfe7fe36bd19b0180546001600160a01b0319166001600160a01b0392909216919091179055565b6000606060005b600154811015620005765760018181548110620004a657620004a662000f07565b600091825260209091200154604051636e04ff0d60e01b81526001600160a01b0390911690636e04ff0d90620004ea90600401602080825260009082015260400190565b600060405180830381865afa9250505080156200052b57506040513d6000823e601f3d908101601f1916820160405262000528919081019062000f33565b60015b156200056d5781156200056a576001836040516020016200054e91815260200190565b604051602081830303815290604052945094505050506200058b565b50505b60010162000485565b50506040805160208101909152600080825291505b9250929050565b6200059c6200085e565b620005a860006200088d565b565b3360009081526002602052604090205460ff16620006225760405162461bcd60e51b815260206004820152602a60248201527f4f6e6c792076616c696420726166666c65732063616e20747269676765722072604482015269195c1b1858d95b595b9d60b21b60648201526084015b60405180910390fd5b6040518681526001600160a01b0388169033907fec142393a19df0050abd3ab67245030cd45977e09c747ab90b8140ec91884a5c9060200160405180910390a3620004188585858585620008dd565b600481815481106200068257600080fd5b6000918252602090912001546001600160a01b0316905081565b60606001805480602002602001604051908101604052809291908181526020018280548015620006f657602002820191906000526020600020905b81546001600160a01b03168152600190910190602001808311620006d7575b5050505050905090565b6200070f8585858585620008dd565b5050505050565b620007206200085e565b60405163b2a7cac560e01b8152600481018290527f00000000000000000000000000000000000000000000000000000000000000006001600160a01b03169063b2a7cac590602401600060405180830381600087803b1580156200078357600080fd5b505af11580156200070f573d6000803e3d6000fd5b620007a26200085e565b600355565b600181815481106200068257600080fd5b60606004805480602002602001604051908101604052809291908181526020018280548015620006f6576020028201919060005260206000209081546001600160a01b03168152600190910190602001808311620006d7575050505050905090565b620008246200085e565b6001600160a01b0381166200085057604051631e4fbdf760e01b81526000600482015260240162000619565b6200085b816200088d565b50565b6000546001600160a01b03163314620005a85760405163118cdaa760e01b815233600482015260240162000619565b600080546001600160a01b038381166001600160a01b0319831681178455604051919092169283917f8be0079c531659141344cd1fd0a4f28419497f9722a3daafe3b4186f6b6457e09190a35050565b60015415620009ee576001805460009190620008fb90829062001008565b815481106200090e576200090e62000f07565b600091825260209182902001546040805163115cbaf560e01b815290516001600160a01b039092169350839263115cbaf5926004808401938290030181865afa9250505080156200097e575060408051601f3d908101601f191682019092526200097b9181019062001030565b60015b15620009ec5760028160028111156200099b576200099b62001053565b14620009ea5760405162461bcd60e51b815260206004820152601f60248201527f50726576696f757320726166666c65206973207374696c6c2061637469766500604482015260640162000619565b505b505b60008584867f00000000000000000000000000000000000000000000000000000000000000007f00000000000000000000000000000000000000000000000000000000000000006003547f000000000000000000000000000000000000000000000000000000000000000062000a6c6000546001600160a01b031690565b8a8a3060405162000a7d9062000c98565b9a8b5260208b019990995260408a01979097526001600160a01b0395861660608a0152608089019490945260a088019290925263ffffffff90811660c088015290831660e08701529082166101008601529091166101208401521661014082015261016001604051809103906000f08015801562000aff573d6000803e3d6000fd5b509050806001600160a01b031663f2fde38b62000b246000546001600160a01b031690565b6040516001600160e01b031960e084901b1681526001600160a01b039091166004820152602401600060405180830381600087803b15801562000b6657600080fd5b505af115801562000b7b573d6000803e3d6000fd5b5050600354604051632fb1302360e21b815260048101919091526001600160a01b0384811660248301527f000000000000000000000000000000000000000000000000000000000000000016925063bec4c08c9150604401600060405180830381600087803b15801562000bee57600080fd5b505af115801562000c03573d6000803e3d6000fd5b50506001805480820182557fb10e2d527612073b26eecdfd717e6a320cf44b4afac2b0732d9fcbe2b7fa0cf60180546001600160a01b0319166001600160a01b038616908117909155600081815260026020526040808220805460ff191690941790935591519093507f54ad4cc1960f9b16b4a7fd9f5ee7c05b4de5672cb94bc1dbad3de1ed291c248b9250a2505050505050565b612675806200106a83390190565b6000806020838503121562000cba57600080fd5b823567ffffffffffffffff8082111562000cd357600080fd5b818501915085601f83011262000ce857600080fd5b81358181111562000cf857600080fd5b86602082850101111562000d0b57600080fd5b60209290920196919550909350505050565b80356001600160a01b038116811462000d3557600080fd5b919050565b60006020828403121562000d4d57600080fd5b62000d588262000d1d565b9392505050565b60005b8381101562000d7c57818101518382015260200162000d62565b50506000910152565b8215158152604060208201526000825180604084015262000dae81606085016020870162000d5f565b601f01601f1916919091016060019392505050565b803563ffffffff8116811462000d3557600080fd5b600080600080600080600060e0888a03121562000df457600080fd5b62000dff8862000d1d565b96506020880135955060408801359450606088013593506080880135925062000e2b60a0890162000d1d565b915062000e3b60c0890162000dc3565b905092959891949750929550565b60006020828403121562000e5c57600080fd5b5035919050565b6020808252825182820181905260009190848201906040850190845b8181101562000ea65783516001600160a01b03168352928401929184019160010162000e7f565b50909695505050505050565b600080600080600060a0868803121562000ecb57600080fd5b85359450602086013593506040860135925062000eeb6060870162000d1d565b915062000efb6080870162000dc3565b90509295509295909350565b634e487b7160e01b600052603260045260246000fd5b634e487b7160e01b600052604160045260246000fd5b6000806040838503121562000f4757600080fd5b8251801515811462000f5857600080fd5b602084015190925067ffffffffffffffff8082111562000f7757600080fd5b818501915085601f83011262000f8c57600080fd5b81518181111562000fa15762000fa162000f1d565b604051601f8201601f19908116603f0116810190838211818310171562000fcc5762000fcc62000f1d565b8160405282815288602084870101111562000fe657600080fd5b62000ff983602083016020880162000d5f565b80955050505050509250929050565b818103818111156200102a57634e487b7160e01b600052601160045260246000fd5b92915050565b6000602082840312156200104357600080fd5b81516003811062000d5857600080fd5b634e487b7160e01b600052602160045260246000fdfe6101a06040523480156200001257600080fd5b506040516200267538038062002675833981016040819052620000359162000228565b8733806000816200008d5760405162461bcd60e51b815260206004820152601860248201527f43616e6e6f7420736574206f776e657220746f207a65726f000000000000000060448201526064015b60405180910390fd5b600080546001600160a01b0319166001600160a01b0384811691909117909155811615620000c057620000c0816200014b565b5050600280546001600160a01b039384166001600160a01b03199182161790915560016003556101009d909d525060e09a909a526101209890985260a09590955260809390935263ffffffff91821660c052600480549188169190981617909655841661016052909316610140521661018052506007805460ff60a01b1916905542600555620002de565b336001600160a01b03821603620001a55760405162461bcd60e51b815260206004820152601760248201527f43616e6e6f74207472616e7366657220746f2073656c66000000000000000000604482015260640162000084565b600180546001600160a01b0319166001600160a01b0383811691821790925560008054604051929316917fed8889f560326eb138920d842192f0eb3dd22b4f139c87a2c57538e05bae12789190a350565b80516001600160a01b03811681146200020e57600080fd5b919050565b805163ffffffff811681146200020e57600080fd5b60008060008060008060008060008060006101608c8e0312156200024b57600080fd5b8b519a5060208c0151995060408c015198506200026b60608d01620001f6565b975060808c0151965060a08c015195506200028960c08d0162000213565b94506200029960e08d01620001f6565b9350620002aa6101008d01620001f6565b9250620002bb6101208d0162000213565b9150620002cc6101408d01620001f6565b90509295989b509295989b9093969950565b60805160a05160c05160e051610100516101205161014051610160516101805161225b6200041a60003960006116f00152600081816102cc0152818161071501528181610793015281816108b0015281816108f201528181610a7c01528181610ac901528181610d2701528181610d6f015281816113d601528181611548015281816115b501526117f60152600081816101f9015281816105160152818161058401528181610e1201528181610e4401528181610fc60152818161181f0152611a05015260008181610299015281816106d60152818161085501528181610a5301526117aa01526000818161013e01528181610743015281816107b70152611784015260008181610380015281816109f201528181610a1c01526117d0015260006119dd01526000611985015260006119a8015261225b6000f3fe60806040526004361061012a5760003560e01c806369940d79116100ab57806391ad27b41161006f57806391ad27b4146103715780639eccacf6146103a4578063c1c244e8146103c4578063e55ae4e8146103d9578063edca914c146103f9578063f2fde38b1461040157600080fd5b806369940d79146102bd5780636e04ff0d146102f057806379ba50971461031e5780638da5cb5b146103335780638ea981171461035157600080fd5b806339624847116100f257806339624847146101e25780634585e33b14610223578063473f1ddc1461024357806355c9e9261461027557806362c95aa11461028a57600080fd5b806309bc33a71461012f5780630a7e957514610171578063115cbaf5146101885780631fe543e3146101af57806323aa56b0146101cf575b600080fd5b34801561013b57600080fd5b507f00000000000000000000000000000000000000000000000000000000000000005b6040519081526020015b60405180910390f35b34801561017d57600080fd5b50610186610421565b005b34801561019457600080fd5b50600754600160a01b900460ff166040516101689190611da4565b3480156101bb57600080fd5b506101866101ca366004611e13565b61063d565b6101866101dd366004611ec5565b61068b565b3480156101ee57600080fd5b5060405163ffffffff7f0000000000000000000000000000000000000000000000000000000000000000168152602001610168565b34801561022f57600080fd5b5061018661023e366004611ef5565b61088c565b34801561024f57600080fd5b506007546001600160a01b03165b6040516001600160a01b039091168152602001610168565b34801561028157600080fd5b5060085461015e565b34801561029657600080fd5b507f000000000000000000000000000000000000000000000000000000000000000061015e565b3480156102c957600080fd5b507f000000000000000000000000000000000000000000000000000000000000000061025d565b3480156102fc57600080fd5b5061031061030b366004611f67565b6109c4565b604051610168929190612042565b34801561032a57600080fd5b50610186610b8c565b34801561033f57600080fd5b506000546001600160a01b031661025d565b34801561035d57600080fd5b5061018661036c366004611ec5565b610c36565b34801561037d57600080fd5b507f000000000000000000000000000000000000000000000000000000000000000061015e565b3480156103b057600080fd5b5060025461025d906001600160a01b031681565b3480156103d057600080fd5b5060055461015e565b3480156103e557600080fd5b5061025d6103f4366004612065565b610ccf565b610186610cff565b34801561040d57600080fd5b5061018661041c366004611ec5565b610d0a565b6000546001600160a01b0316331480159061044757506004546001600160a01b03163314155b156104a55760405162461bcd60e51b8152602060048201526024808201527f4f6e6c79204f776e6572206f722054726561737572792063616e2063616c6c206044820152637468697360e01b60648201526084015b60405180910390fd5b6001600754600160a01b900460ff1660028111156104c5576104c5611d8e565b146105125760405162461bcd60e51b815260206004820152601f60248201527f526166666c65206e6f7420696e2043414c43554c4154494e4720737461746500604482015260640161049c565b60007f000000000000000000000000000000000000000000000000000000000000000063ffffffff1667ffffffffffffffff81111561055357610553611dcc565b60405190808252806020026020018201604052801561057c578160200160208202803683370190505b50905060005b7f000000000000000000000000000000000000000000000000000000000000000063ffffffff1681101561062e5760085460408051426020820152449181019190915233606090811b6bffffffffffffffffffffffff19169082015260748101839052609481019190915260b4016040516020818303038152906040528051906020012060001c82828151811061061b5761061b61207e565b6020908102919091010152600101610582565b5061063a600082610d1b565b50565b6002546001600160a01b0316331461067d5760025460405163073e64fd60e21b81523360048201526001600160a01b03909116602482015260440161049c565b6106878282610d1b565b5050565b61069361188e565b6000600754600160a01b900460ff1660028111156106b3576106b3611d8e565b146106d15760405163349289c560e21b815260040160405180910390fd5b6008547f00000000000000000000000000000000000000000000000000000000000000001161071357604051636af9e6d960e11b815260040160405180910390fd5b7f00000000000000000000000000000000000000000000000000000000000000006001600160a01b0316610786577f000000000000000000000000000000000000000000000000000000000000000034146107815760405163066d781f60e01b815260040160405180910390fd5b6107db565b6107db6001600160a01b037f00000000000000000000000000000000000000000000000000000000000000001633307f00000000000000000000000000000000000000000000000000000000000000006118b8565b6008805460018101825560009182527ff3f7a9fe364faab93b216da50a3214154f22a0a2b415b23a84c8169e8b636ee30180546001600160a01b0319166001600160a01b03841690811790915560405190917f0805e1d667bddb8a95f0f09880cf94f403fb596ce79928d9f29b74203ba284d491a26008547f0000000000000000000000000000000000000000000000000000000000000000900361088257610882611925565b61063a6001600355565b60006108a6604051806020016040528060008152506109c4565b509050806109b7577f00000000000000000000000000000000000000000000000000000000000000006001600160a01b03161561096a576040516370a0823160e01b81523060048201527f00000000000000000000000000000000000000000000000000000000000000006001600160a01b0316906370a0823190602401602060405180830381865afa158015610941573d6000803e3d6000fd5b505050506040513d601f19601f820116820180604052508101906109659190612094565b61096c565b475b600854600754600160a01b900460ff16600281111561098d5761098d611d8e565b604051632c2193d560e11b815260048101939093526024830191909152604482015260640161049c565b6109bf611925565b505050565b600060606000600760149054906101000a900460ff1660028111156109eb576109eb611d8e565b15905060007f000000000000000000000000000000000000000000000000000000000000000015801590610a4b57507f000000000000000000000000000000000000000000000000000000000000000060055442610a4991906120c3565b115b6008549091507f000000000000000000000000000000000000000000000000000000000000000081101590151560007f00000000000000000000000000000000000000000000000000000000000000006001600160a01b0316610ab15750471515610b40565b6040516370a0823160e01b81523060048201526000907f00000000000000000000000000000000000000000000000000000000000000006001600160a01b0316906370a0823190602401602060405180830381865afa158015610b18573d6000803e3d6000fd5b505050506040513d601f19601f82011682018060405250810190610b3c9190612094565b1190505b848015610b5157508380610b515750825b8015610b5a5750815b8015610b635750805b60408051808201909152600381526203078360ec1b602082015290999098509650505050505050565b6001546001600160a01b03163314610bdf5760405162461bcd60e51b815260206004820152601660248201527526bab9ba10313290383937b837b9b2b21037bbb732b960511b604482015260640161049c565b60008054336001600160a01b0319808316821784556001805490911690556040516001600160a01b0390921692909183917f8be0079c531659141344cd1fd0a4f28419497f9722a3daafe3b4186f6b6457e091a350565b6000546001600160a01b03163314801590610c5c57506002546001600160a01b03163314155b15610cad5733610c746000546001600160a01b031690565b60025460405163061db9c160e01b81526001600160a01b039384166004820152918316602483015291909116604482015260640161049c565b600280546001600160a01b0319166001600160a01b0392909216919091179055565b600060088281548110610ce457610ce461207e565b6000918252602090912001546001600160a01b031692915050565b610d083361068b565b565b610d12611aeb565b61063a81611b3e565b610d2361188e565b60007f00000000000000000000000000000000000000000000000000000000000000006001600160a01b0316610d5a575047610de5565b6040516370a0823160e01b81523060048201527f00000000000000000000000000000000000000000000000000000000000000006001600160a01b0316906370a0823190602401602060405180830381865afa158015610dbe573d6000803e3d6000fd5b505050506040513d601f19601f82011682018060405250810190610de29190612094565b90505b60006064610df48360056120dc565b610dfe9190612109565b90506000610e0c82846120c3565b905060007f000000000000000000000000000000000000000000000000000000000000000063ffffffff1660088054905010610e6e577f000000000000000000000000000000000000000000000000000000000000000063ffffffff16610e72565b6008545b905060008167ffffffffffffffff811115610e8f57610e8f611dcc565b604051908082528060200260200182016040528015610eb8578160200160208202803683370190505b50905060008267ffffffffffffffff811115610ed657610ed6611dcc565b604051908082528060200260200182016040528015610eff578160200160208202803683370190505b50905082600103610fb957600060088054905088600081518110610f2557610f2561207e565b6020026020010151610f37919061211d565b905060088181548110610f4c57610f4c61207e565b600091825260208220015484516001600160a01b03909116918591610f7357610f7361207e565b60200260200101906001600160a01b031690816001600160a01b0316815250508482600081518110610fa757610fa761207e565b60200260200101818152505050611393565b826003148015610fef57507f000000000000000000000000000000000000000000000000000000000000000063ffffffff166003145b1561122057606461100187603c6120dc565b61100b9190612109565b8160008151811061101e5761101e61207e565b6020908102919091010152606461103687601e6120dc565b6110409190612109565b816001815181106110535761105361207e565b6020908102919091010152606461106b8760056120dc565b6110759190612109565b816002815181106110885761108861207e565b602090810291909101015260088054885189906000906110aa576110aa61207e565b60200260200101516110bc919061211d565b815481106110cc576110cc61207e565b600091825260208220015483516001600160a01b039091169184916110f3576110f361207e565b6001600160a01b0390921660209283029190910190910152600880548851899060019081106111245761112461207e565b6020026020010151611136919061211d565b815481106111465761114661207e565b9060005260206000200160009054906101000a90046001600160a01b0316826001815181106111775761117761207e565b6001600160a01b0390921660209283029190910190910152600880548851899060029081106111a8576111a861207e565b60200260200101516111ba919061211d565b815481106111ca576111ca61207e565b9060005260206000200160009054906101000a90046001600160a01b0316826002815181106111fb576111fb61207e565b60200260200101906001600160a01b031690816001600160a01b031681525050611393565b600061122c8486612109565b905060005b84811015611390578183828151811061124c5761124c61207e565b60200260200101818152505088518110156112f057600880548a518b90849081106112795761127961207e565b602002602001015161128b919061211d565b8154811061129b5761129b61207e565b9060005260206000200160009054906101000a90046001600160a01b03168482815181106112cb576112cb61207e565b60200260200101906001600160a01b031690816001600160a01b031681525050611388565b60088080549050828b60008151811061130b5761130b61207e565b602002602001015161131d9190612131565b611327919061211d565b815481106113375761133761207e565b9060005260206000200160009054906101000a90046001600160a01b03168482815181106113675761136761207e565b60200260200101906001600160a01b031690816001600160a01b0316815250505b600101611231565b50505b60408051600081526020810191829052516113b091600891611cfa565b50426005556007805460ff60a01b1916600160a11b1790556113d460066000611d5f565b7f00000000000000000000000000000000000000000000000000000000000000006001600160a01b0316611537576004546040516000916001600160a01b03169087908381818185875af1925050503d806000811461144f576040519150601f19603f3d011682016040523d82523d6000602084013e611454565b606091505b50509050806114765760405163a1d04b3960e01b815260040160405180910390fd5b60005b848110156115305760008482815181106114955761149561207e565b60200260200101516001600160a01b03168483815181106114b8576114b861207e565b602002602001015160405160006040518083038185875af1925050503d8060008114611500576040519150601f19603f3d011682016040523d82523d6000602084013e611505565b606091505b50509050806115275760405163a1d04b3960e01b815260040160405180910390fd5b50600101611479565b50506115f6565b600454611571906001600160a01b037f00000000000000000000000000000000000000000000000000000000000000008116911687611be7565b60005b838110156115f4576115ec8382815181106115915761159161207e565b60200260200101518383815181106115ab576115ab61207e565b60200260200101517f00000000000000000000000000000000000000000000000000000000000000006001600160a01b0316611be79092919063ffffffff16565b600101611574565b505b7ffc49ebbec72d32bd8b287a8ec3c43bf2c1d47fb9b36867819560bcf3c32090138282604051611627929190612144565b60405180910390a182156116ee57816000815181106116485761164861207e565b6020026020010151600760006101000a8154816001600160a01b0302191690836001600160a01b03160217905550816000815181106116895761168961207e565b60200260200101516001600160a01b03167f64791dbae5677392ba76761a5273633cec8f1d9d8cfe808da7bac6ef16a880be826000815181106116ce576116ce61207e565b60200260200101516040516116e591815260200190565b60405180910390a25b7f00000000000000000000000000000000000000000000000000000000000000006001600160a01b031663829945ff836000815181106117305761173061207e565b60200260200101518360008151811061174b5761174b61207e565b602090810291909101015160405160e084901b6001600160e01b03191681526001600160a01b03928316600482015260248101919091527f000000000000000000000000000000000000000000000000000000000000000060448201527f000000000000000000000000000000000000000000000000000000000000000060648201527f000000000000000000000000000000000000000000000000000000000000000060848201527f000000000000000000000000000000000000000000000000000000000000000090911660a48201527f000000000000000000000000000000000000000000000000000000000000000063ffffffff1660c482015260e401600060405180830381600087803b15801561186657600080fd5b505af115801561187a573d6000803e3d6000fd5b505050505050505050506106876001600355565b6002600354036118b157604051633ee5aeb560e01b815260040160405180910390fd5b6002600355565b6040516001600160a01b03848116602483015283811660448301526064820183905261191f9186918216906323b872dd906084015b604051602081830303815290604052915060e01b6020820180516001600160e01b038381831617835250505050611c18565b50505050565b6000600754600160a01b900460ff16600281111561194557611945611d8e565b146119635760405163349289c560e21b815260040160405180910390fd5b6007805460ff60a01b1916600160a01b1790556002546040805160c0810182527f000000000000000000000000000000000000000000000000000000000000000081527f000000000000000000000000000000000000000000000000000000000000000060208083019190915260038284015263ffffffff7f0000000000000000000000000000000000000000000000000000000000000000811660608401527f00000000000000000000000000000000000000000000000000000000000000001660808301528251908101909252600182526000926001600160a01b031691639b1c385e919060a0820190611a5890611c89565b8152506040518263ffffffff1660e01b8152600401611a7791906121c8565b6020604051808303816000875af1158015611a96573d6000803e3d6000fd5b505050506040513d601f19601f82011682018060405250810190611aba9190612094565b60405190915081907fcd6e45c8998311cab7e9d4385596cac867e20a0587194b954fa3a731c93ce78b90600090a250565b6000546001600160a01b03163314610d085760405162461bcd60e51b815260206004820152601660248201527527b7363c9031b0b63630b1363290313c9037bbb732b960511b604482015260640161049c565b336001600160a01b03821603611b965760405162461bcd60e51b815260206004820152601760248201527f43616e6e6f74207472616e7366657220746f2073656c66000000000000000000604482015260640161049c565b600180546001600160a01b0319166001600160a01b0383811691821790925560008054604051929316917fed8889f560326eb138920d842192f0eb3dd22b4f139c87a2c57538e05bae12789190a350565b6040516001600160a01b038381166024830152604482018390526109bf91859182169063a9059cbb906064016118ed565b600080602060008451602086016000885af180611c3b576040513d6000823e3d81fd5b50506000513d91508115611c53578060011415611c60565b6001600160a01b0384163b155b1561191f57604051635274afe760e01b81526001600160a01b038516600482015260240161049c565b60607f92fd13387c7fe7befbc38d303d6468778fb9731bc4583f17d92989c6fcfdeaaa82604051602401611cc291511515815260200190565b60408051601f198184030181529190526020810180516001600160e01b03166001600160e01b03199093169290921790915292915050565b828054828255906000526020600020908101928215611d4f579160200282015b82811115611d4f57825182546001600160a01b0319166001600160a01b03909116178255602090920191600190910190611d1a565b50611d5b929150611d79565b5090565b508054600082559060005260206000209081019061063a91905b5b80821115611d5b5760008155600101611d7a565b634e487b7160e01b600052602160045260246000fd5b6020810160038310611dc657634e487b7160e01b600052602160045260246000fd5b91905290565b634e487b7160e01b600052604160045260246000fd5b604051601f8201601f1916810167ffffffffffffffff81118282101715611e0b57611e0b611dcc565b604052919050565b60008060408385031215611e2657600080fd5b8235915060208084013567ffffffffffffffff80821115611e4657600080fd5b818601915086601f830112611e5a57600080fd5b813581811115611e6c57611e6c611dcc565b8060051b9150611e7d848301611de2565b8181529183018401918481019089841115611e9757600080fd5b938501935b83851015611eb557843582529385019390850190611e9c565b8096505050505050509250929050565b600060208284031215611ed757600080fd5b81356001600160a01b0381168114611eee57600080fd5b9392505050565b60008060208385031215611f0857600080fd5b823567ffffffffffffffff80821115611f2057600080fd5b818501915085601f830112611f3457600080fd5b813581811115611f4357600080fd5b866020828501011115611f5557600080fd5b60209290920196919550909350505050565b60006020808385031215611f7a57600080fd5b823567ffffffffffffffff80821115611f9257600080fd5b818501915085601f830112611fa657600080fd5b813581811115611fb857611fb8611dcc565b611fca601f8201601f19168501611de2565b91508082528684828501011115611fe057600080fd5b8084840185840137600090820190930192909252509392505050565b6000815180845260005b8181101561202257602081850181015186830182015201612006565b506000602082860101526020601f19601f83011685010191505092915050565b821515815260406020820152600061205d6040830184611ffc565b949350505050565b60006020828403121561207757600080fd5b5035919050565b634e487b7160e01b600052603260045260246000fd5b6000602082840312156120a657600080fd5b5051919050565b634e487b7160e01b600052601160045260246000fd5b818103818111156120d6576120d66120ad565b92915050565b80820281158282048414176120d6576120d66120ad565b634e487b7160e01b600052601260045260246000fd5b600082612118576121186120f3565b500490565b60008261212c5761212c6120f3565b500690565b808201808211156120d6576120d66120ad565b604080825283519082018190526000906020906060840190828701845b828110156121865781516001600160a01b031684529284019290840190600101612161565b5050508381038285015284518082528583019183019060005b818110156121bb5783518352928401929184019160010161219f565b5090979650505050505050565b60208152815160208201526020820151604082015261ffff60408301511660608201526000606083015163ffffffff80821660808501528060808601511660a0850152505060a083015160c08084015261205d60e0840182611ffc56fea26469706673582212201fc64cb969a48d41006e6b39ea17a4b7204047b093dff03fc3ce50fb265bb91564736f6c63430008180033a264697066735822122067299a7299b09fbec16a4546fe6f5238594b2e477a2d0f2d18d050869dd464ab64736f6c63430008180033",
  "linkReferences": {},
  "deployedLinkReferences": {}
}