{
  "_format": "hh-sol-artifact-1",
  "contractName": "LottoFactory",
  "sourceName": "contracts/LottoFactory.sol",
  "abi": [
    {
      "inputs": [
        {
          "internalType": "address",
          "name": "vrfCoordinator",
          "type": "address"
        },
        {
          "internalType": "bytes32",
          "name": "gasLane",
          "type": "bytes32"
        },
        {
          "internalType": "uint256",
          "name": "subscriptionId",
          "type": "uint256"
        },
        {
          "internalType": "uint32",
          "name": "callbackGasLimit",
          "type": "uint32"
        }
      ],
      "stateMutability": "nonpayable",
      "type": "constructor"
    },
    {
      "inputs": [
        {
          "internalType": "address",
          "name": "owner",
          "type": "address"
        }
      ],
      "name": "OwnableInvalidOwner",
      "type": "error"
    },
    {
      "inputs": [
        {
          "internalType": "address",
          "name": "account",
          "type": "address"
        }
      ],
      "name": "OwnableUnauthorizedAccount",
      "type": "error"
    },
    {
      "anonymous": false,
      "inputs": [
        {
          "indexed": true,
          "internalType": "address",
          "name": "previousOwner",
          "type": "address"
        },
        {
          "indexed": true,
          "internalType": "address",
          "name": "newOwner",
          "type": "address"
        }
      ],
      "name": "OwnershipTransferred",
      "type": "event"
    },
    {
      "anonymous": false,
      "inputs": [
        {
          "indexed": true,
          "internalType": "address",
          "name": "raffleAddress",
          "type": "address"
        }
      ],
      "name": "RaffleCreated",
      "type": "event"
    },
    {
      "inputs": [
        {
          "internalType": "uint256",
          "name": "subscriptionId",
          "type": "uint256"
        }
      ],
      "name": "acceptSubscriptionOwnerTransfer",
      "outputs": [],
      "stateMutability": "nonpayable",
      "type": "function"
    },
    {
      "inputs": [
        {
          "internalType": "address",
          "name": "token",
          "type": "address"
        }
      ],
      "name": "addSupportedToken",
      "outputs": [],
      "stateMutability": "nonpayable",
      "type": "function"
    },
    {
      "inputs": [
        {
          "internalType": "uint256",
          "name": "ticketPrice",
          "type": "uint256"
        },
        {
          "internalType": "uint256",
          "name": "maxTickets",
          "type": "uint256"
        },
        {
          "internalType": "uint256",
          "name": "duration",
          "type": "uint256"
        },
        {
          "internalType": "address",
          "name": "rewardToken",
          "type": "address"
        },
        {
          "internalType": "uint32",
          "name": "numWinners",
          "type": "uint32"
        }
      ],
      "name": "createRaffle",
      "outputs": [],
      "stateMutability": "nonpayable",
      "type": "function"
    },
    {
      "inputs": [],
      "name": "getRaffles",
      "outputs": [
        {
          "internalType": "contract Raffle[]",
          "name": "",
          "type": "address[]"
        }
      ],
      "stateMutability": "view",
      "type": "function"
    },
    {
      "inputs": [],
      "name": "getSupportedTokens",
      "outputs": [
        {
          "internalType": "address[]",
          "name": "",
          "type": "address[]"
        }
      ],
      "stateMutability": "view",
      "type": "function"
    },
    {
      "inputs": [],
      "name": "i_callbackGasLimit",
      "outputs": [
        {
          "internalType": "uint32",
          "name": "",
          "type": "uint32"
        }
      ],
      "stateMutability": "view",
      "type": "function"
    },
    {
      "inputs": [],
      "name": "i_gasLane",
      "outputs": [
        {
          "internalType": "bytes32",
          "name": "",
          "type": "bytes32"
        }
      ],
      "stateMutability": "view",
      "type": "function"
    },
    {
      "inputs": [],
      "name": "i_vrfCoordinator",
      "outputs": [
        {
          "internalType": "address",
          "name": "",
          "type": "address"
        }
      ],
      "stateMutability": "view",
      "type": "function"
    },
    {
      "inputs": [],
      "name": "owner",
      "outputs": [
        {
          "internalType": "address",
          "name": "",
          "type": "address"
        }
      ],
      "stateMutability": "view",
      "type": "function"
    },
    {
      "inputs": [],
      "name": "renounceOwnership",
      "outputs": [],
      "stateMutability": "nonpayable",
      "type": "function"
    },
    {
      "inputs": [
        {
          "internalType": "uint256",
          "name": "",
          "type": "uint256"
        }
      ],
      "name": "s_raffles",
      "outputs": [
        {
          "internalType": "contract Raffle",
          "name": "",
          "type": "address"
        }
      ],
      "stateMutability": "view",
      "type": "function"
    },
    {
      "inputs": [],
      "name": "s_subscriptionId",
      "outputs": [
        {
          "internalType": "uint256",
          "name": "",
          "type": "uint256"
        }
      ],
      "stateMutability": "view",
      "type": "function"
    },
    {
      "inputs": [
        {
          "internalType": "uint256",
          "name": "",
          "type": "uint256"
        }
      ],
      "name": "s_supportedTokens",
      "outputs": [
        {
          "internalType": "address",
          "name": "",
          "type": "address"
        }
      ],
      "stateMutability": "view",
      "type": "function"
    },
    {
      "inputs": [
        {
          "internalType": "uint256",
          "name": "subscriptionId",
          "type": "uint256"
        }
      ],
      "name": "setSubscriptionId",
      "outputs": [],
      "stateMutability": "nonpayable",
      "type": "function"
    },
    {
      "inputs": [
        {
          "internalType": "address",
          "name": "newOwner",
          "type": "address"
        }
      ],
      "name": "transferOwnership",
      "outputs": [],
      "stateMutability": "nonpayable",
      "type": "function"
    }
  ],
  "bytecode": "0x60e060405234801561001057600080fd5b50604051612d56380380612d5683398101604081905261002f916100d4565b338061005557604051631e4fbdf760e01b81526000600482015260240160405180910390fd5b61005e81610084565b506001600160a01b0390931660805260a09190915260025563ffffffff1660c052610135565b600080546001600160a01b038381166001600160a01b0319831681178455604051919092169283917f8be0079c531659141344cd1fd0a4f28419497f9722a3daafe3b4186f6b6457e09190a35050565b600080600080608085870312156100ea57600080fd5b84516001600160a01b038116811461010157600080fd5b809450506020850151925060408501519150606085015163ffffffff8116811461012a57600080fd5b939692955090935050565b60805160a05160c051612bcf61018760003960008181610260015261040801526000818161017a01526103e40152600081816101e9015281816103c30152818161056a01526106660152612bcf6000f3fe60806040523480156200001157600080fd5b5060043610620001095760003560e01c8063a3719d9d11620000a3578063c51b8692116200006e578063c51b86921462000239578063d3c7c2c71462000250578063d757d027146200025a578063f2fde38b146200029857600080fd5b8063a3719d9d14620001cc578063aebc455014620001e3578063b2a7cac5146200020b578063c1e0d236146200022257600080fd5b80638da5cb5b11620000e45780638da5cb5b146200014e5780638e879c8a14620001745780639433799c146200019c578063a18723c514620001b357600080fd5b80636d69fcaf146200010e578063715018a614620001275780638ac000211462000131575b600080fd5b620001256200011f36600462000843565b620002af565b005b620001256200030b565b6200013b60025481565b6040519081526020015b60405180910390f35b6000546001600160a01b03165b6040516001600160a01b03909116815260200162000145565b6200013b7f000000000000000000000000000000000000000000000000000000000000000081565b6200015b620001ad36600462000868565b62000323565b620001bd6200034e565b60405162000145919062000882565b62000125620001dd366004620008d1565b620003b2565b6200015b7f000000000000000000000000000000000000000000000000000000000000000081565b620001256200021c36600462000868565b62000646565b620001256200023336600462000868565b620006cf565b6200015b6200024a36600462000868565b620006de565b620001bd620006ef565b620002827f000000000000000000000000000000000000000000000000000000000000000081565b60405163ffffffff909116815260200162000145565b62000125620002a936600462000843565b62000751565b620002b962000799565b600380546001810182556000919091527fc2575a0e9e593c00f959f8c92f12db2869c3395a3b0502d05e2516446f71f85b0180546001600160a01b0319166001600160a01b0392909216919091179055565b6200031562000799565b620003216000620007c8565b565b600381815481106200033457600080fd5b6000918252602090912001546001600160a01b0316905081565b60606001805480602002602001604051908101604052809291908181526020018280548015620003a857602002820191906000526020600020905b81546001600160a01b0316815260019091019060200180831162000389575b5050505050905090565b620003bc62000799565b60008584867f00000000000000000000000000000000000000000000000000000000000000007f00000000000000000000000000000000000000000000000000000000000000006002547f00000000000000000000000000000000000000000000000000000000000000006200043a6000546001600160a01b031690565b8a8a6040516200044a9062000818565b998a5260208a019890985260408901969096526001600160a01b039485166060890152608088019390935260a087019190915263ffffffff90811660c087015290821660e086015291166101008401521661012082015261014001604051809103906000f080158015620004c2573d6000803e3d6000fd5b509050806001600160a01b031663f2fde38b620004e76000546001600160a01b031690565b6040516001600160e01b031960e084901b1681526001600160a01b039091166004820152602401600060405180830381600087803b1580156200052957600080fd5b505af11580156200053e573d6000803e3d6000fd5b5050600254604051632fb1302360e21b815260048101919091526001600160a01b0384811660248301527f000000000000000000000000000000000000000000000000000000000000000016925063bec4c08c9150604401600060405180830381600087803b158015620005b157600080fd5b505af1158015620005c6573d6000803e3d6000fd5b505060018054808201825560009182527fb10e2d527612073b26eecdfd717e6a320cf44b4afac2b0732d9fcbe2b7fa0cf60180546001600160a01b0319166001600160a01b0386169081179091556040519093507f54ad4cc1960f9b16b4a7fd9f5ee7c05b4de5672cb94bc1dbad3de1ed291c248b9250a2505050505050565b6200065062000799565b60405163b2a7cac560e01b8152600481018290527f00000000000000000000000000000000000000000000000000000000000000006001600160a01b03169063b2a7cac590602401600060405180830381600087803b158015620006b357600080fd5b505af1158015620006c8573d6000803e3d6000fd5b5050505050565b620006d962000799565b600255565b600181815481106200033457600080fd5b60606003805480602002602001604051908101604052809291908181526020018280548015620003a8576020028201919060005260206000209081546001600160a01b0316815260019091019060200180831162000389575050505050905090565b6200075b62000799565b6001600160a01b0381166200078b57604051631e4fbdf760e01b8152600060048201526024015b60405180910390fd5b6200079681620007c8565b50565b6000546001600160a01b03163314620003215760405163118cdaa760e01b815233600482015260240162000782565b600080546001600160a01b038381166001600160a01b0319831681178455604051919092169283917f8be0079c531659141344cd1fd0a4f28419497f9722a3daafe3b4186f6b6457e09190a35050565b612267806200093383390190565b80356001600160a01b03811681146200083e57600080fd5b919050565b6000602082840312156200085657600080fd5b620008618262000826565b9392505050565b6000602082840312156200087b57600080fd5b5035919050565b6020808252825182820181905260009190848201906040850190845b81811015620008c55783516001600160a01b0316835292840192918401916001016200089e565b50909695505050505050565b600080600080600060a08688031215620008ea57600080fd5b8535945060208601359350604086013592506200090a6060870162000826565b9150608086013563ffffffff811681146200092457600080fd5b80915050929550929590935056fe6101a06040523480156200001257600080fd5b506040516200226738038062002267833981016040819052620000359162000218565b8633806000816200008d5760405162461bcd60e51b815260206004820152601860248201527f43616e6e6f7420736574206f776e657220746f207a65726f000000000000000060448201526064015b60405180910390fd5b600080546001600160a01b0319166001600160a01b0384811691909117909155811615620000c057620000c0816200013b565b5050600280546001600160a01b0319166001600160a01b039384161790555060016003556101009a909a5260e0989098526101209690965260a09390935260809190915263ffffffff90811660c0529085166101605291909316610180521661014052506006805460ff60a01b1916905542600455620002ba565b336001600160a01b03821603620001955760405162461bcd60e51b815260206004820152601760248201527f43616e6e6f74207472616e7366657220746f2073656c66000000000000000000604482015260640162000084565b600180546001600160a01b0319166001600160a01b0383811691821790925560008054604051929316917fed8889f560326eb138920d842192f0eb3dd22b4f139c87a2c57538e05bae12789190a350565b80516001600160a01b0381168114620001fe57600080fd5b919050565b805163ffffffff81168114620001fe57600080fd5b6000806000806000806000806000806101408b8d0312156200023957600080fd5b8a51995060208b0151985060408b015197506200025960608c01620001e6565b965060808b0151955060a08b015194506200027760c08c0162000203565b93506200028760e08c01620001e6565b9250620002986101008c01620001e6565b9150620002a96101208c0162000203565b90509295989b9194979a5092959850565b60805160a05160c05160e0516101005161012051610140516101605161018051611ea2620003c5600039600081816102ac015281816104de0152818161055c0152818161067c015281816106be0152818161081f0152818161086c01528181610aca01528181610b120152818161117301528181611301015261138c0152600081816111a301526113230152600081816101d901528181610bb501528181610be701528181610d69015261164c0152600081816102790152818161049f0152818161061e01526107f60152600081816101330152818161050c015261058001526000818161036001526107c001526000611624015260006115cc015260006115ef0152611ea26000f3fe60806040526004361061011f5760003560e01c80636e04ff0d116100a05780639eccacf6116100645780639eccacf614610384578063c1c244e8146103a4578063e55ae4e8146103b9578063edca914c146103d9578063f2fde38b146103e157600080fd5b80636e04ff0d146102d057806379ba5097146102fe5780638da5cb5b146103135780638ea981171461033157806391ad27b41461035157600080fd5b80634585e33b116100e75780634585e33b14610203578063473f1ddc1461022357806355c9e9261461025557806362c95aa11461026a57806369940d791461029d57600080fd5b806309bc33a714610124578063115cbaf5146101665780631fe543e31461018d57806323aa56b0146101af57806339624847146101c2575b600080fd5b34801561013057600080fd5b507f00000000000000000000000000000000000000000000000000000000000000005b6040519081526020015b60405180910390f35b34801561017257600080fd5b50600654600160a01b900460ff1660405161015d91906119eb565b34801561019957600080fd5b506101ad6101a8366004611a5a565b610401565b005b6101ad6101bd366004611b0c565b610454565b3480156101ce57600080fd5b5060405163ffffffff7f000000000000000000000000000000000000000000000000000000000000000016815260200161015d565b34801561020f57600080fd5b506101ad61021e366004611b3c565b610658565b34801561022f57600080fd5b506006546001600160a01b03165b6040516001600160a01b03909116815260200161015d565b34801561026157600080fd5b50600754610153565b34801561027657600080fd5b507f0000000000000000000000000000000000000000000000000000000000000000610153565b3480156102a957600080fd5b507f000000000000000000000000000000000000000000000000000000000000000061023d565b3480156102dc57600080fd5b506102f06102eb366004611bae565b610790565b60405161015d929190611c89565b34801561030a57600080fd5b506101ad61092f565b34801561031f57600080fd5b506000546001600160a01b031661023d565b34801561033d57600080fd5b506101ad61034c366004611b0c565b6109d9565b34801561035d57600080fd5b507f0000000000000000000000000000000000000000000000000000000000000000610153565b34801561039057600080fd5b5060025461023d906001600160a01b031681565b3480156103b057600080fd5b50600454610153565b3480156103c557600080fd5b5061023d6103d4366004611cac565b610a72565b6101ad610aa2565b3480156103ed57600080fd5b506101ad6103fc366004611b0c565b610aad565b6002546001600160a01b031633146104465760025460405163073e64fd60e21b81523360048201526001600160a01b0390911660248201526044015b60405180910390fd5b6104508282610abe565b5050565b61045c6114d5565b6000600654600160a01b900460ff16600181111561047c5761047c6119d5565b1461049a5760405163349289c560e21b815260040160405180910390fd5b6007547f0000000000000000000000000000000000000000000000000000000000000000116104dc57604051636af9e6d960e11b815260040160405180910390fd5b7f00000000000000000000000000000000000000000000000000000000000000006001600160a01b031661054f577f0000000000000000000000000000000000000000000000000000000000000000341461054a5760405163066d781f60e01b815260040160405180910390fd5b6105a4565b6105a46001600160a01b037f00000000000000000000000000000000000000000000000000000000000000001633307f00000000000000000000000000000000000000000000000000000000000000006114ff565b6007805460018101825560009182527fa66cc928b5edb82af9bd49922954155ab7b0942694bea4ce44661d9a8736c6880180546001600160a01b0319166001600160a01b03841690811790915560405190917f0805e1d667bddb8a95f0f09880cf94f403fb596ce79928d9f29b74203ba284d491a26007547f0000000000000000000000000000000000000000000000000000000000000000900361064b5761064b61156c565b6106556001600355565b50565b600061067260405180602001604052806000815250610790565b50905080610783577f00000000000000000000000000000000000000000000000000000000000000006001600160a01b031615610736576040516370a0823160e01b81523060048201527f00000000000000000000000000000000000000000000000000000000000000006001600160a01b0316906370a0823190602401602060405180830381865afa15801561070d573d6000803e3d6000fd5b505050506040513d601f19601f820116820180604052508101906107319190611cc5565b610738565b475b600754600654600160a01b900460ff166001811115610759576107596119d5565b604051632c2193d560e11b815260048101939093526024830191909152604482015260640161043d565b61078b61156c565b505050565b600060606000600660149054906101000a900460ff1660018111156107b7576107b76119d5565b600014905060007f0000000000000000000000000000000000000000000000000000000000000000600454426107ed9190611cf4565b600754911091507f000000000000000000000000000000000000000000000000000000000000000081101590151560007f00000000000000000000000000000000000000000000000000000000000000006001600160a01b031661085457504715156108e3565b6040516370a0823160e01b81523060048201526000907f00000000000000000000000000000000000000000000000000000000000000006001600160a01b0316906370a0823190602401602060405180830381865afa1580156108bb573d6000803e3d6000fd5b505050506040513d601f19601f820116820180604052508101906108df9190611cc5565b1190505b8480156108f4575083806108f45750825b80156108fd5750815b80156109065750805b60408051808201909152600381526203078360ec1b602082015290999098509650505050505050565b6001546001600160a01b031633146109825760405162461bcd60e51b815260206004820152601660248201527526bab9ba10313290383937b837b9b2b21037bbb732b960511b604482015260640161043d565b60008054336001600160a01b0319808316821784556001805490911690556040516001600160a01b0390921692909183917f8be0079c531659141344cd1fd0a4f28419497f9722a3daafe3b4186f6b6457e091a350565b6000546001600160a01b031633148015906109ff57506002546001600160a01b03163314155b15610a505733610a176000546001600160a01b031690565b60025460405163061db9c160e01b81526001600160a01b039384166004820152918316602483015291909116604482015260640161043d565b600280546001600160a01b0319166001600160a01b0392909216919091179055565b600060078281548110610a8757610a87611d0d565b6000918252602090912001546001600160a01b031692915050565b610aab33610454565b565b610ab5611732565b61065581611785565b610ac66114d5565b60007f00000000000000000000000000000000000000000000000000000000000000006001600160a01b0316610afd575047610b88565b6040516370a0823160e01b81523060048201527f00000000000000000000000000000000000000000000000000000000000000006001600160a01b0316906370a0823190602401602060405180830381865afa158015610b61573d6000803e3d6000fd5b505050506040513d601f19601f82011682018060405250810190610b859190611cc5565b90505b60006064610b97836005611d23565b610ba19190611d50565b90506000610baf8284611cf4565b905060007f000000000000000000000000000000000000000000000000000000000000000063ffffffff1660078054905010610c11577f000000000000000000000000000000000000000000000000000000000000000063ffffffff16610c15565b6007545b905060008167ffffffffffffffff811115610c3257610c32611a13565b604051908082528060200260200182016040528015610c5b578160200160208202803683370190505b50905060008267ffffffffffffffff811115610c7957610c79611a13565b604051908082528060200260200182016040528015610ca2578160200160208202803683370190505b50905082600103610d5c57600060078054905088600081518110610cc857610cc8611d0d565b6020026020010151610cda9190611d64565b905060078181548110610cef57610cef611d0d565b600091825260208220015484516001600160a01b03909116918591610d1657610d16611d0d565b60200260200101906001600160a01b031690816001600160a01b0316815250508482600081518110610d4a57610d4a611d0d565b60200260200101818152505050611136565b826003148015610d9257507f000000000000000000000000000000000000000000000000000000000000000063ffffffff166003145b15610fc3576064610da487603c611d23565b610dae9190611d50565b81600081518110610dc157610dc1611d0d565b60209081029190910101526064610dd987601e611d23565b610de39190611d50565b81600181518110610df657610df6611d0d565b60209081029190910101526064610e0e876005611d23565b610e189190611d50565b81600281518110610e2b57610e2b611d0d565b60209081029190910101526007805488518990600090610e4d57610e4d611d0d565b6020026020010151610e5f9190611d64565b81548110610e6f57610e6f611d0d565b600091825260208220015483516001600160a01b03909116918491610e9657610e96611d0d565b6001600160a01b039092166020928302919091019091015260078054885189906001908110610ec757610ec7611d0d565b6020026020010151610ed99190611d64565b81548110610ee957610ee9611d0d565b9060005260206000200160009054906101000a90046001600160a01b031682600181518110610f1a57610f1a611d0d565b6001600160a01b039092166020928302919091019091015260078054885189906002908110610f4b57610f4b611d0d565b6020026020010151610f5d9190611d64565b81548110610f6d57610f6d611d0d565b9060005260206000200160009054906101000a90046001600160a01b031682600281518110610f9e57610f9e611d0d565b60200260200101906001600160a01b031690816001600160a01b031681525050611136565b6000610fcf8486611d50565b905060005b848110156111335781838281518110610fef57610fef611d0d565b602002602001018181525050885181101561109357600780548a518b908490811061101c5761101c611d0d565b602002602001015161102e9190611d64565b8154811061103e5761103e611d0d565b9060005260206000200160009054906101000a90046001600160a01b031684828151811061106e5761106e611d0d565b60200260200101906001600160a01b031690816001600160a01b03168152505061112b565b60078080549050828b6000815181106110ae576110ae611d0d565b60200260200101516110c09190611d78565b6110ca9190611d64565b815481106110da576110da611d0d565b9060005260206000200160009054906101000a90046001600160a01b031684828151811061110a5761110a611d0d565b60200260200101906001600160a01b031690816001600160a01b0316815250505b600101610fd4565b50505b604080516000815260208101918290525161115391600791611941565b50426004556006805460ff60a01b19169055611171600560006119a6565b7f00000000000000000000000000000000000000000000000000000000000000006001600160a01b03166112f45760007f00000000000000000000000000000000000000000000000000000000000000006001600160a01b03168660405160006040518083038185875af1925050503d806000811461120c576040519150601f19603f3d011682016040523d82523d6000602084013e611211565b606091505b50509050806112335760405163a1d04b3960e01b815260040160405180910390fd5b60005b848110156112ed57600084828151811061125257611252611d0d565b60200260200101516001600160a01b031684838151811061127557611275611d0d565b602002602001015160405160006040518083038185875af1925050503d80600081146112bd576040519150601f19603f3d011682016040523d82523d6000602084013e6112c2565b606091505b50509050806112e45760405163a1d04b3960e01b815260040160405180910390fd5b50600101611236565b50506113cd565b6113486001600160a01b037f0000000000000000000000000000000000000000000000000000000000000000167f00000000000000000000000000000000000000000000000000000000000000008761182e565b60005b838110156113cb576113c383828151811061136857611368611d0d565b602002602001015183838151811061138257611382611d0d565b60200260200101517f00000000000000000000000000000000000000000000000000000000000000006001600160a01b031661182e9092919063ffffffff16565b60010161134b565b505b7ffc49ebbec72d32bd8b287a8ec3c43bf2c1d47fb9b36867819560bcf3c320901382826040516113fe929190611d8b565b60405180910390a182156114c5578160008151811061141f5761141f611d0d565b6020026020010151600660006101000a8154816001600160a01b0302191690836001600160a01b031602179055508160008151811061146057611460611d0d565b60200260200101516001600160a01b03167f64791dbae5677392ba76761a5273633cec8f1d9d8cfe808da7bac6ef16a880be826000815181106114a5576114a5611d0d565b60200260200101516040516114bc91815260200190565b60405180910390a25b5050505050506104506001600355565b6002600354036114f857604051633ee5aeb560e01b815260040160405180910390fd5b6002600355565b6040516001600160a01b0384811660248301528381166044830152606482018390526115669186918216906323b872dd906084015b604051602081830303815290604052915060e01b6020820180516001600160e01b03838183161783525050505061185f565b50505050565b6000600654600160a01b900460ff16600181111561158c5761158c6119d5565b146115aa5760405163349289c560e21b815260040160405180910390fd5b6006805460ff60a01b1916600160a01b1790556002546040805160c0810182527f000000000000000000000000000000000000000000000000000000000000000081527f000000000000000000000000000000000000000000000000000000000000000060208083019190915260038284015263ffffffff7f0000000000000000000000000000000000000000000000000000000000000000811660608401527f00000000000000000000000000000000000000000000000000000000000000001660808301528251908101909252600182526000926001600160a01b031691639b1c385e919060a082019061169f906118d0565b8152506040518263ffffffff1660e01b81526004016116be9190611e0f565b6020604051808303816000875af11580156116dd573d6000803e3d6000fd5b505050506040513d601f19601f820116820180604052508101906117019190611cc5565b60405190915081907fcd6e45c8998311cab7e9d4385596cac867e20a0587194b954fa3a731c93ce78b90600090a250565b6000546001600160a01b03163314610aab5760405162461bcd60e51b815260206004820152601660248201527527b7363c9031b0b63630b1363290313c9037bbb732b960511b604482015260640161043d565b336001600160a01b038216036117dd5760405162461bcd60e51b815260206004820152601760248201527f43616e6e6f74207472616e7366657220746f2073656c66000000000000000000604482015260640161043d565b600180546001600160a01b0319166001600160a01b0383811691821790925560008054604051929316917fed8889f560326eb138920d842192f0eb3dd22b4f139c87a2c57538e05bae12789190a350565b6040516001600160a01b0383811660248301526044820183905261078b91859182169063a9059cbb90606401611534565b600080602060008451602086016000885af180611882576040513d6000823e3d81fd5b50506000513d9150811561189a5780600114156118a7565b6001600160a01b0384163b155b1561156657604051635274afe760e01b81526001600160a01b038516600482015260240161043d565b60607f92fd13387c7fe7befbc38d303d6468778fb9731bc4583f17d92989c6fcfdeaaa8260405160240161190991511515815260200190565b60408051601f198184030181529190526020810180516001600160e01b03166001600160e01b03199093169290921790915292915050565b828054828255906000526020600020908101928215611996579160200282015b8281111561199657825182546001600160a01b0319166001600160a01b03909116178255602090920191600190910190611961565b506119a29291506119c0565b5090565b508054600082559060005260206000209081019061065591905b5b808211156119a257600081556001016119c1565b634e487b7160e01b600052602160045260246000fd5b6020810160028310611a0d57634e487b7160e01b600052602160045260246000fd5b91905290565b634e487b7160e01b600052604160045260246000fd5b604051601f8201601f1916810167ffffffffffffffff81118282101715611a5257611a52611a13565b604052919050565b60008060408385031215611a6d57600080fd5b8235915060208084013567ffffffffffffffff80821115611a8d57600080fd5b818601915086601f830112611aa157600080fd5b813581811115611ab357611ab3611a13565b8060051b9150611ac4848301611a29565b8181529183018401918481019089841115611ade57600080fd5b938501935b83851015611afc57843582529385019390850190611ae3565b8096505050505050509250929050565b600060208284031215611b1e57600080fd5b81356001600160a01b0381168114611b3557600080fd5b9392505050565b60008060208385031215611b4f57600080fd5b823567ffffffffffffffff80821115611b6757600080fd5b818501915085601f830112611b7b57600080fd5b813581811115611b8a57600080fd5b866020828501011115611b9c57600080fd5b60209290920196919550909350505050565b60006020808385031215611bc157600080fd5b823567ffffffffffffffff80821115611bd957600080fd5b818501915085601f830112611bed57600080fd5b813581811115611bff57611bff611a13565b611c11601f8201601f19168501611a29565b91508082528684828501011115611c2757600080fd5b8084840185840137600090820190930192909252509392505050565b6000815180845260005b81811015611c6957602081850181015186830182015201611c4d565b506000602082860101526020601f19601f83011685010191505092915050565b8215158152604060208201526000611ca46040830184611c43565b949350505050565b600060208284031215611cbe57600080fd5b5035919050565b600060208284031215611cd757600080fd5b5051919050565b634e487b7160e01b600052601160045260246000fd5b81810381811115611d0757611d07611cde565b92915050565b634e487b7160e01b600052603260045260246000fd5b8082028115828204841417611d0757611d07611cde565b634e487b7160e01b600052601260045260246000fd5b600082611d5f57611d5f611d3a565b500490565b600082611d7357611d73611d3a565b500690565b80820180821115611d0757611d07611cde565b604080825283519082018190526000906020906060840190828701845b82811015611dcd5781516001600160a01b031684529284019290840190600101611da8565b5050508381038285015284518082528583019183019060005b81811015611e0257835183529284019291840191600101611de6565b5090979650505050505050565b60208152815160208201526020820151604082015261ffff60408301511660608201526000606083015163ffffffff80821660808501528060808601511660a0850152505060a083015160c080840152611ca460e0840182611c4356fea26469706673582212200a8f890a20893acb450cd0ff247609f346035f352e83a0adc8a770ffbcc028f764736f6c63430008180033a2646970667358221220dd678d8fd5305de1b7f3493604ea2f91f84d62ca4e3ecde6fc18738e95148d6764736f6c63430008180033",
  "linkReferences": {},
  "deployedLinkReferences": {}
}