{"contracts/LottoZap.sol":{"LottoZap":{"abi":[{"inputs":[{"internalType":"address","name":"_swapRouter","type":"address"},{"internalType":"address","name":"_weth","type":"address"}],"stateMutability":"nonpayable","type":"constructor"},{"inputs":[{"internalType":"address","name":"token","type":"address"}],"name":"SafeERC20FailedOperation","type":"error"},{"inputs":[],"name":"i_swapRouter","outputs":[{"internalType":"contract ISwapRouter","name":"","type":"address"}],"stateMutability":"view","type":"function"},{"inputs":[],"name":"i_weth","outputs":[{"internalType":"address","name":"","type":"address"}],"stateMutability":"view","type":"function"},{"inputs":[{"internalType":"address","name":"tokenIn","type":"address"},{"internalType":"uint256","name":"amountInMax","type":"uint256"},{"internalType":"address","name":"raffle","type":"address"},{"internalType":"uint24","name":"fee","type":"uint24"}],"name":"swapAndEnter","outputs":[],"stateMutability":"nonpayable","type":"function"},{"stateMutability":"payable","type":"receive"}],"evm":{"bytecode":{"linkReferences":{},"object":"60c060405234801561001057600080fd5b506040516107cf3803806107cf83398101604081905261002f91610062565b6001600160a01b039182166080521660a052610095565b80516001600160a01b038116811461005d57600080fd5b919050565b6000806040838503121561007557600080fd5b61007e83610046565b915061008c60208401610046565b90509250929050565b60805160a0516106f46100db600039600081816078015281816101b801526102ef01526000818160c8015281816101790152818161026601526103e701526106f46000f3fe6080604052600436106100385760003560e01c806306811eb7146100445780634dbe7e921461006657806358fb8054146100b657600080fd5b3661003f57005b600080fd5b34801561005057600080fd5b5061006461005f36600461062d565b6100ea565b005b34801561007257600080fd5b5061009a7f000000000000000000000000000000000000000000000000000000000000000081565b6040516001600160a01b03909116815260200160405180910390f35b3480156100c257600080fd5b5061009a7f000000000000000000000000000000000000000000000000000000000000000081565b60008290506000816001600160a01b03166309bc33a76040518163ffffffff1660e01b8152600401602060405180830381865afa15801561012f573d6000803e3d6000fd5b505050506040513d601f19601f820116820180604052508101906101539190610684565b905061016a6001600160a01b038716333088610418565b61019e6001600160a01b0387167f000000000000000000000000000000000000000000000000000000000000000087610485565b60408051610100810182526001600160a01b0388811682527f000000000000000000000000000000000000000000000000000000000000000081166020830190815262ffffff8781168486019081523060608601908152426080870190815260a0870189815260c088018e8152600060e08a018181529a51631b67c43360e31b81528a518a166004820152975189166024890152945190951660448701529151861660648601525160848501525160a4840152905160c48301529351821660e48201529192917f00000000000000000000000000000000000000000000000000000000000000009091169063db3e219890610104016020604051808303816000875af11580156102b2573d6000803e3d6000fd5b505050506040513d601f19601f820116820180604052508101906102d69190610684565b604051632e1a7d4d60e01b8152600481018590529091507f00000000000000000000000000000000000000000000000000000000000000006001600160a01b031690632e1a7d4d90602401600060405180830381600087803b15801561033b57600080fd5b505af115801561034f573d6000803e3d6000fd5b505060405163023aa56b60e41b81523360048201526001600160a01b03871692506323aa56b0915085906024016000604051808303818588803b15801561039557600080fd5b505af11580156103a9573d6000803e3d6000fd5b5050505050600081886103bc919061069d565b905080156103d8576103d86001600160a01b038a163383610515565b61040d6001600160a01b038a167f00000000000000000000000000000000000000000000000000000000000000006000610485565b505050505050505050565b6040516001600160a01b03848116602483015283811660448301526064820183905261047f9186918216906323b872dd906084015b604051602081830303815290604052915060e01b6020820180516001600160e01b03838183161783525050505061054b565b50505050565b604080516001600160a01b038416602482015260448082018490528251808303909101815260649091019091526020810180516001600160e01b031663095ea7b360e01b1790526104d684826105c0565b61047f576040516001600160a01b0384811660248301526000604483015261050b91869182169063095ea7b39060640161044d565b61047f848261054b565b6040516001600160a01b0383811660248301526044820183905261054691859182169063a9059cbb9060640161044d565b505050565b600080602060008451602086016000885af18061056e576040513d6000823e3d81fd5b50506000513d91508115610586578060011415610593565b6001600160a01b0384163b155b1561047f57604051635274afe760e01b81526001600160a01b038516600482015260240160405180910390fd5b6000806000806020600086516020880160008a5af192503d91506000519050828015610605575081156105f65780600114610605565b6000866001600160a01b03163b115b93505050505b92915050565b80356001600160a01b038116811461062857600080fd5b919050565b6000806000806080858703121561064357600080fd5b61064c85610611565b93506020850135925061066160408601610611565b9150606085013562ffffff8116811461067957600080fd5b939692955090935050565b60006020828403121561069657600080fd5b5051919050565b8181038181111561060b57634e487b7160e01b600052601160045260246000fdfea264697066735822122056fb97b1bea57ab64160c359ad5937d8cb70ea4e9493619df35aeab9a6f9f06764736f6c63430008180033","opcodes":"PUSH1 0xC0 PUSH1 0x40 MSTORE CALLVALUE DUP1 ISZERO PUSH2 0x10 JUMPI PUSH1 0x0 DUP1 REVERT JUMPDEST POP PUSH1 0x40 MLOAD PUSH2 0x7CF CODESIZE SUB DUP1 PUSH2 0x7CF DUP4 CODECOPY DUP2 ADD PUSH1 0x40 DUP2 SWAP1 MSTORE PUSH2 0x2F SWAP2 PUSH2 0x62 JUMP JUMPDEST PUSH1 0x1 PUSH1 0x1 PUSH1 0xA0 SHL SUB SWAP2 DUP3 AND PUSH1 0x80 MSTORE AND PUSH1 0xA0 MSTORE PUSH2 0x95 JUMP JUMPDEST DUP1 MLOAD PUSH1 0x1 PUSH1 0x1 PUSH1 0xA0 SHL SUB DUP2 AND DUP2 EQ PUSH2 0x5D JUMPI PUSH1 0x0 DUP1 REVERT JUMPDEST SWAP2 SWAP1 POP JUMP JUMPDEST PUSH1 0x0 DUP1 PUSH1 0x40 DUP4 DUP6 SUB SLT ISZERO PUSH2 0x75 JUMPI PUSH1 0x0 DUP1 REVERT JUMPDEST PUSH2 0x7E DUP4 PUSH2 0x46 JUMP JUMPDEST SWAP2 POP PUSH2 0x8C PUSH1 0x20 DUP5 ADD PUSH2 0x46 JUMP JUMPDEST SWAP1 POP SWAP3 POP SWAP3 SWAP1 POP JUMP JUMPDEST PUSH1 0x80 MLOAD PUSH1 0xA0 MLOAD PUSH2 0x6F4 PUSH2 0xDB PUSH1 0x0 CODECOPY PUSH1 0x0 DUP2 DUP2 PUSH1 0x78 ADD MSTORE DUP2 DUP2 PUSH2 0x1B8 ADD MSTORE PUSH2 0x2EF ADD MSTORE PUSH1 0x0 DUP2 DUP2 PUSH1 0xC8 ADD MSTORE DUP2 DUP2 PUSH2 0x179 ADD MSTORE DUP2 DUP2 PUSH2 0x266 ADD MSTORE PUSH2 0x3E7 ADD MSTORE PUSH2 0x6F4 PUSH1 0x0 RETURN INVALID PUSH1 0x80 PUSH1 0x40 MSTORE PUSH1 0x4 CALLDATASIZE LT PUSH2 0x38 JUMPI PUSH1 0x0 CALLDATALOAD PUSH1 0xE0 SHR DUP1 PUSH4 0x6811EB7 EQ PUSH2 0x44 JUMPI DUP1 PUSH4 0x4DBE7E92 EQ PUSH2 0x66 JUMPI DUP1 PUSH4 0x58FB8054 EQ PUSH2 0xB6 JUMPI PUSH1 0x0 DUP1 REVERT JUMPDEST CALLDATASIZE PUSH2 0x3F JUMPI STOP JUMPDEST PUSH1 0x0 DUP1 REVERT JUMPDEST CALLVALUE DUP1 ISZERO PUSH2 0x50 JUMPI PUSH1 0x0 DUP1 REVERT JUMPDEST POP PUSH2 0x64 PUSH2 0x5F CALLDATASIZE PUSH1 0x4 PUSH2 0x62D JUMP JUMPDEST PUSH2 0xEA JUMP JUMPDEST STOP JUMPDEST CALLVALUE DUP1 ISZERO PUSH2 0x72 JUMPI PUSH1 0x0 DUP1 REVERT JUMPDEST POP PUSH2 0x9A PUSH32 0x0 DUP2 JUMP JUMPDEST PUSH1 0x40 MLOAD PUSH1 0x1 PUSH1 0x1 PUSH1 0xA0 SHL SUB SWAP1 SWAP2 AND DUP2 MSTORE PUSH1 0x20 ADD PUSH1 0x40 MLOAD DUP1 SWAP2 SUB SWAP1 RETURN JUMPDEST CALLVALUE DUP1 ISZERO PUSH2 0xC2 JUMPI PUSH1 0x0 DUP1 REVERT JUMPDEST POP PUSH2 0x9A PUSH32 0x0 DUP2 JUMP JUMPDEST PUSH1 0x0 DUP3 SWAP1 POP PUSH1 0x0 DUP2 PUSH1 0x1 PUSH1 0x1 PUSH1 0xA0 SHL SUB AND PUSH4 0x9BC33A7 PUSH1 0x40 MLOAD DUP2 PUSH4 0xFFFFFFFF AND PUSH1 0xE0 SHL DUP2 MSTORE PUSH1 0x4 ADD PUSH1 0x20 PUSH1 0x40 MLOAD DUP1 DUP4 SUB DUP2 DUP7 GAS STATICCALL ISZERO DUP1 ISZERO PUSH2 0x12F JUMPI RETURNDATASIZE PUSH1 0x0 DUP1 RETURNDATACOPY RETURNDATASIZE PUSH1 0x0 REVERT JUMPDEST POP POP POP POP PUSH1 0x40 MLOAD RETURNDATASIZE PUSH1 0x1F NOT PUSH1 0x1F DUP3 ADD AND DUP3 ADD DUP1 PUSH1 0x40 MSTORE POP DUP2 ADD SWAP1 PUSH2 0x153 SWAP2 SWAP1 PUSH2 0x684 JUMP JUMPDEST SWAP1 POP PUSH2 0x16A PUSH1 0x1 PUSH1 0x1 PUSH1 0xA0 SHL SUB DUP8 AND CALLER ADDRESS DUP9 PUSH2 0x418 JUMP JUMPDEST PUSH2 0x19E PUSH1 0x1 PUSH1 0x1 PUSH1 0xA0 SHL SUB DUP8 AND PUSH32 0x0 DUP8 PUSH2 0x485 JUMP JUMPDEST PUSH1 0x40 DUP1 MLOAD PUSH2 0x100 DUP2 ADD DUP3 MSTORE PUSH1 0x1 PUSH1 0x1 PUSH1 0xA0 SHL SUB DUP9 DUP2 AND DUP3 MSTORE PUSH32 0x0 DUP2 AND PUSH1 0x20 DUP4 ADD SWAP1 DUP2 MSTORE PUSH3 0xFFFFFF DUP8 DUP2 AND DUP5 DUP7 ADD SWAP1 DUP2 MSTORE ADDRESS PUSH1 0x60 DUP7 ADD SWAP1 DUP2 MSTORE TIMESTAMP PUSH1 0x80 DUP8 ADD SWAP1 DUP2 MSTORE PUSH1 0xA0 DUP8 ADD DUP10 DUP2 MSTORE PUSH1 0xC0 DUP9 ADD DUP15 DUP2 MSTORE PUSH1 0x0 PUSH1 0xE0 DUP11 ADD DUP2 DUP2 MSTORE SWAP11 MLOAD PUSH4 0x1B67C433 PUSH1 0xE3 SHL DUP2 MSTORE DUP11 MLOAD DUP11 AND PUSH1 0x4 DUP3 ADD MSTORE SWAP8 MLOAD DUP10 AND PUSH1 0x24 DUP10 ADD MSTORE SWAP5 MLOAD SWAP1 SWAP6 AND PUSH1 0x44 DUP8 ADD MSTORE SWAP2 MLOAD DUP7 AND PUSH1 0x64 DUP7 ADD MSTORE MLOAD PUSH1 0x84 DUP6 ADD MSTORE MLOAD PUSH1 0xA4 DUP5 ADD MSTORE SWAP1 MLOAD PUSH1 0xC4 DUP4 ADD MSTORE SWAP4 MLOAD DUP3 AND PUSH1 0xE4 DUP3 ADD MSTORE SWAP2 SWAP3 SWAP2 PUSH32 0x0 SWAP1 SWAP2 AND SWAP1 PUSH4 0xDB3E2198 SWAP1 PUSH2 0x104 ADD PUSH1 0x20 PUSH1 0x40 MLOAD DUP1 DUP4 SUB DUP2 PUSH1 0x0 DUP8 GAS CALL ISZERO DUP1 ISZERO PUSH2 0x2B2 JUMPI RETURNDATASIZE PUSH1 0x0 DUP1 RETURNDATACOPY RETURNDATASIZE PUSH1 0x0 REVERT JUMPDEST POP POP POP POP PUSH1 0x40 MLOAD RETURNDATASIZE PUSH1 0x1F NOT PUSH1 0x1F DUP3 ADD AND DUP3 ADD DUP1 PUSH1 0x40 MSTORE POP DUP2 ADD SWAP1 PUSH2 0x2D6 SWAP2 SWAP1 PUSH2 0x684 JUMP JUMPDEST PUSH1 0x40 MLOAD PUSH4 0x2E1A7D4D PUSH1 0xE0 SHL DUP2 MSTORE PUSH1 0x4 DUP2 ADD DUP6 SWAP1 MSTORE SWAP1 SWAP2 POP PUSH32 0x0 PUSH1 0x1 PUSH1 0x1 PUSH1 0xA0 SHL SUB AND SWAP1 PUSH4 0x2E1A7D4D SWAP1 PUSH1 0x24 ADD PUSH1 0x0 PUSH1 0x40 MLOAD DUP1 DUP4 SUB DUP2 PUSH1 0x0 DUP8 DUP1 EXTCODESIZE ISZERO DUP1 ISZERO PUSH2 0x33B JUMPI PUSH1 0x0 DUP1 REVERT JUMPDEST POP GAS CALL ISZERO DUP1 ISZERO PUSH2 0x34F JUMPI RETURNDATASIZE PUSH1 0x0 DUP1 RETURNDATACOPY RETURNDATASIZE PUSH1 0x0 REVERT JUMPDEST POP POP PUSH1 0x40 MLOAD PUSH4 0x23AA56B PUSH1 0xE4 SHL DUP2 MSTORE CALLER PUSH1 0x4 DUP3 ADD MSTORE PUSH1 0x1 PUSH1 0x1 PUSH1 0xA0 SHL SUB DUP8 AND SWAP3 POP PUSH4 0x23AA56B0 SWAP2 POP DUP6 SWAP1 PUSH1 0x24 ADD PUSH1 0x0 PUSH1 0x40 MLOAD DUP1 DUP4 SUB DUP2 DUP6 DUP9 DUP1 EXTCODESIZE ISZERO DUP1 ISZERO PUSH2 0x395 JUMPI PUSH1 0x0 DUP1 REVERT JUMPDEST POP GAS CALL ISZERO DUP1 ISZERO PUSH2 0x3A9 JUMPI RETURNDATASIZE PUSH1 0x0 DUP1 RETURNDATACOPY RETURNDATASIZE PUSH1 0x0 REVERT JUMPDEST POP POP POP POP POP PUSH1 0x0 DUP2 DUP9 PUSH2 0x3BC SWAP2 SWAP1 PUSH2 0x69D JUMP JUMPDEST SWAP1 POP DUP1 ISZERO PUSH2 0x3D8 JUMPI PUSH2 0x3D8 PUSH1 0x1 PUSH1 0x1 PUSH1 0xA0 SHL SUB DUP11 AND CALLER DUP4 PUSH2 0x515 JUMP JUMPDEST PUSH2 0x40D PUSH1 0x1 PUSH1 0x1 PUSH1 0xA0 SHL SUB DUP11 AND PUSH32 0x0 PUSH1 0x0 PUSH2 0x485 JUMP JUMPDEST POP POP POP POP POP POP POP POP POP JUMP JUMPDEST PUSH1 0x40 MLOAD PUSH1 0x1 PUSH1 0x1 PUSH1 0xA0 SHL SUB DUP5 DUP2 AND PUSH1 0x24 DUP4 ADD MSTORE DUP4 DUP2 AND PUSH1 0x44 DUP4 ADD MSTORE PUSH1 0x64 DUP3 ADD DUP4 SWAP1 MSTORE PUSH2 0x47F SWAP2 DUP7 SWAP2 DUP3 AND SWAP1 PUSH4 0x23B872DD SWAP1 PUSH1 0x84 ADD JUMPDEST PUSH1 0x40 MLOAD PUSH1 0x20 DUP2 DUP4 SUB SUB DUP2 MSTORE SWAP1 PUSH1 0x40 MSTORE SWAP2 POP PUSH1 0xE0 SHL PUSH1 0x20 DUP3 ADD DUP1 MLOAD PUSH1 0x1 PUSH1 0x1 PUSH1 0xE0 SHL SUB DUP4 DUP2 DUP4 AND OR DUP4 MSTORE POP POP POP POP PUSH2 0x54B JUMP JUMPDEST POP POP POP POP JUMP JUMPDEST PUSH1 0x40 DUP1 MLOAD PUSH1 0x1 PUSH1 0x1 PUSH1 0xA0 SHL SUB DUP5 AND PUSH1 0x24 DUP3 ADD MSTORE PUSH1 0x44 DUP1 DUP3 ADD DUP5 SWAP1 MSTORE DUP3 MLOAD DUP1 DUP4 SUB SWAP1 SWAP2 ADD DUP2 MSTORE PUSH1 0x64 SWAP1 SWAP2 ADD SWAP1 SWAP2 MSTORE PUSH1 0x20 DUP2 ADD DUP1 MLOAD PUSH1 0x1 PUSH1 0x1 PUSH1 0xE0 SHL SUB AND PUSH4 0x95EA7B3 PUSH1 0xE0 SHL OR SWAP1 MSTORE PUSH2 0x4D6 DUP5 DUP3 PUSH2 0x5C0 JUMP JUMPDEST PUSH2 0x47F JUMPI PUSH1 0x40 MLOAD PUSH1 0x1 PUSH1 0x1 PUSH1 0xA0 SHL SUB DUP5 DUP2 AND PUSH1 0x24 DUP4 ADD MSTORE PUSH1 0x0 PUSH1 0x44 DUP4 ADD MSTORE PUSH2 0x50B SWAP2 DUP7 SWAP2 DUP3 AND SWAP1 PUSH4 0x95EA7B3 SWAP1 PUSH1 0x64 ADD PUSH2 0x44D JUMP JUMPDEST PUSH2 0x47F DUP5 DUP3 PUSH2 0x54B JUMP JUMPDEST PUSH1 0x40 MLOAD PUSH1 0x1 PUSH1 0x1 PUSH1 0xA0 SHL SUB DUP4 DUP2 AND PUSH1 0x24 DUP4 ADD MSTORE PUSH1 0x44 DUP3 ADD DUP4 SWAP1 MSTORE PUSH2 0x546 SWAP2 DUP6 SWAP2 DUP3 AND SWAP1 PUSH4 0xA9059CBB SWAP1 PUSH1 0x64 ADD PUSH2 0x44D JUMP JUMPDEST POP POP POP JUMP JUMPDEST PUSH1 0x0 DUP1 PUSH1 0x20 PUSH1 0x0 DUP5 MLOAD PUSH1 0x20 DUP7 ADD PUSH1 0x0 DUP9 GAS CALL DUP1 PUSH2 0x56E JUMPI PUSH1 0x40 MLOAD RETURNDATASIZE PUSH1 0x0 DUP3 RETURNDATACOPY RETURNDATASIZE DUP2 REVERT JUMPDEST POP POP PUSH1 0x0 MLOAD RETURNDATASIZE SWAP2 POP DUP2 ISZERO PUSH2 0x586 JUMPI DUP1 PUSH1 0x1 EQ ISZERO PUSH2 0x593 JUMP JUMPDEST PUSH1 0x1 PUSH1 0x1 PUSH1 0xA0 SHL SUB DUP5 AND EXTCODESIZE ISZERO JUMPDEST ISZERO PUSH2 0x47F JUMPI PUSH1 0x40 MLOAD PUSH4 0x5274AFE7 PUSH1 0xE0 SHL DUP2 MSTORE PUSH1 0x1 PUSH1 0x1 PUSH1 0xA0 SHL SUB DUP6 AND PUSH1 0x4 DUP3 ADD MSTORE PUSH1 0x24 ADD PUSH1 0x40 MLOAD DUP1 SWAP2 SUB SWAP1 REVERT JUMPDEST PUSH1 0x0 DUP1 PUSH1 0x0 DUP1 PUSH1 0x20 PUSH1 0x0 DUP7 MLOAD PUSH1 0x20 DUP9 ADD PUSH1 0x0 DUP11 GAS CALL SWAP3 POP RETURNDATASIZE SWAP2 POP PUSH1 0x0 MLOAD SWAP1 POP DUP3 DUP1 ISZERO PUSH2 0x605 JUMPI POP DUP2 ISZERO PUSH2 0x5F6 JUMPI DUP1 PUSH1 0x1 EQ PUSH2 0x605 JUMP JUMPDEST PUSH1 0x0 DUP7 PUSH1 0x1 PUSH1 0x1 PUSH1 0xA0 SHL SUB AND EXTCODESIZE GT JUMPDEST SWAP4 POP POP POP POP JUMPDEST SWAP3 SWAP2 POP POP JUMP JUMPDEST DUP1 CALLDATALOAD PUSH1 0x1 PUSH1 0x1 PUSH1 0xA0 SHL SUB DUP2 AND DUP2 EQ PUSH2 0x628 JUMPI PUSH1 0x0 DUP1 REVERT JUMPDEST SWAP2 SWAP1 POP JUMP JUMPDEST PUSH1 0x0 DUP1 PUSH1 0x0 DUP1 PUSH1 0x80 DUP6 DUP8 SUB SLT ISZERO PUSH2 0x643 JUMPI PUSH1 0x0 DUP1 REVERT JUMPDEST PUSH2 0x64C DUP6 PUSH2 0x611 JUMP JUMPDEST SWAP4 POP PUSH1 0x20 DUP6 ADD CALLDATALOAD SWAP3 POP PUSH2 0x661 PUSH1 0x40 DUP7 ADD PUSH2 0x611 JUMP JUMPDEST SWAP2 POP PUSH1 0x60 DUP6 ADD CALLDATALOAD PUSH3 0xFFFFFF DUP2 AND DUP2 EQ PUSH2 0x679 JUMPI PUSH1 0x0 DUP1 REVERT JUMPDEST SWAP4 SWAP7 SWAP3 SWAP6 POP SWAP1 SWAP4 POP POP JUMP JUMPDEST PUSH1 0x0 PUSH1 0x20 DUP3 DUP5 SUB SLT ISZERO PUSH2 0x696 JUMPI PUSH1 0x0 DUP1 REVERT JUMPDEST POP MLOAD SWAP2 SWAP1 POP JUMP JUMPDEST DUP2 DUP2 SUB DUP2 DUP2 GT ISZERO PUSH2 0x60B JUMPI PUSH4 0x4E487B71 PUSH1 0xE0 SHL PUSH1 0x0 MSTORE PUSH1 0x11 PUSH1 0x4 MSTORE PUSH1 0x24 PUSH1 0x0 REVERT INVALID LOG2 PUSH5 0x6970667358 0x22 SLT KECCAK256 JUMP 0xFB SWAP8 0xB1 0xBE 0xA5 PUSH27 0xB64160C359AD5937D8CB70EA4E9493619DF35AEAB9A6F9F0676473 PUSH16 0x6C634300081800330000000000000000 "},"methodIdentifiers":{"i_swapRouter()":"58fb8054","i_weth()":"4dbe7e92","swapAndEnter(address,uint256,address,uint24)":"06811eb7"}}}}}