{
  "_format": "hh-sol-artifact-1",
  "contractName": "VRFCoordinatorV2PlusMock",
  "sourceName": "contracts/mocks/VRFCoordinatorV2PlusMock.sol",
  "abi": [
    {
      "inputs": [
        {
          "internalType": "uint96",
          "name": "_baseFee",
          "type": "uint96"
        },
        {
          "internalType": "uint96",
          "name": "_gasPriceLink",
          "type": "uint96"
        }
      ],
      "stateMutability": "nonpayable",
      "type": "constructor"
    },
    {
      "anonymous": false,
      "inputs": [
        {
          "indexed": true,
          "internalType": "uint256",
          "name": "subId",
          "type": "uint256"
        },
        {
          "indexed": false,
          "internalType": "address",
          "name": "consumer",
          "type": "address"
        }
      ],
      "name": "ConsumerAdded",
      "type": "event"
    },
    {
      "anonymous": false,
      "inputs": [
        {
          "indexed": true,
          "internalType": "uint256",
          "name": "requestId",
          "type": "uint256"
        },
        {
          "indexed": false,
          "internalType": "uint256",
          "name": "outputSeed",
          "type": "uint256"
        },
        {
          "indexed": false,
          "internalType": "uint96",
          "name": "payment",
          "type": "uint96"
        },
        {
          "indexed": false,
          "internalType": "bool",
          "name": "success",
          "type": "bool"
        }
      ],
      "name": "RandomWordsFulfilled",
      "type": "event"
    },
    {
      "anonymous": false,
      "inputs": [
        {
          "indexed": true,
          "internalType": "bytes32",
          "name": "keyHash",
          "type": "bytes32"
        },
        {
          "indexed": false,
          "internalType": "uint256",
          "name": "requestId",
          "type": "uint256"
        },
        {
          "indexed": false,
          "internalType": "uint256",
          "name": "preSeed",
          "type": "uint256"
        },
        {
          "indexed": true,
          "internalType": "uint256",
          "name": "subId",
          "type": "uint256"
        },
        {
          "indexed": false,
          "internalType": "uint16",
          "name": "minimumRequestConfirmations",
          "type": "uint16"
        },
        {
          "indexed": false,
          "internalType": "uint32",
          "name": "callbackGasLimit",
          "type": "uint32"
        },
        {
          "indexed": false,
          "internalType": "uint32",
          "name": "numWords",
          "type": "uint32"
        },
        {
          "indexed": false,
          "internalType": "bytes",
          "name": "extraArgs",
          "type": "bytes"
        },
        {
          "indexed": true,
          "internalType": "address",
          "name": "sender",
          "type": "address"
        }
      ],
      "name": "RandomWordsRequested",
      "type": "event"
    },
    {
      "anonymous": false,
      "inputs": [
        {
          "indexed": true,
          "internalType": "uint256",
          "name": "subId",
          "type": "uint256"
        },
        {
          "indexed": false,
          "internalType": "address",
          "name": "owner",
          "type": "address"
        }
      ],
      "name": "SubscriptionCreated",
      "type": "event"
    },
    {
      "inputs": [],
      "name": "BASE_FEE",
      "outputs": [
        {
          "internalType": "uint96",
          "name": "",
          "type": "uint96"
        }
      ],
      "stateMutability": "view",
      "type": "function"
    },
    {
      "inputs": [],
      "name": "GAS_PRICE_LINK",
      "outputs": [
        {
          "internalType": "uint96",
          "name": "",
          "type": "uint96"
        }
      ],
      "stateMutability": "view",
      "type": "function"
    },
    {
      "inputs": [
        {
          "internalType": "uint256",
          "name": "",
          "type": "uint256"
        }
      ],
      "name": "acceptSubscriptionOwnerTransfer",
      "outputs": [],
      "stateMutability": "pure",
      "type": "function"
    },
    {
      "inputs": [
        {
          "internalType": "uint256",
          "name": "subId",
          "type": "uint256"
        },
        {
          "internalType": "address",
          "name": "consumer",
          "type": "address"
        }
      ],
      "name": "addConsumer",
      "outputs": [],
      "stateMutability": "nonpayable",
      "type": "function"
    },
    {
      "inputs": [],
      "name": "createSubscription",
      "outputs": [
        {
          "internalType": "uint256",
          "name": "subId",
          "type": "uint256"
        }
      ],
      "stateMutability": "nonpayable",
      "type": "function"
    },
    {
      "inputs": [
        {
          "internalType": "uint256",
          "name": "_requestId",
          "type": "uint256"
        },
        {
          "internalType": "address",
          "name": "_consumer",
          "type": "address"
        }
      ],
      "name": "fulfillRandomWords",
      "outputs": [],
      "stateMutability": "nonpayable",
      "type": "function"
    },
    {
      "inputs": [
        {
          "internalType": "uint256",
          "name": "_requestId",
          "type": "uint256"
        },
        {
          "internalType": "address",
          "name": "_consumer",
          "type": "address"
        },
        {
          "internalType": "uint256[]",
          "name": "_words",
          "type": "uint256[]"
        }
      ],
      "name": "fulfillRandomWordsWithOverride",
      "outputs": [],
      "stateMutability": "nonpayable",
      "type": "function"
    },
    {
      "inputs": [
        {
          "internalType": "uint256",
          "name": "",
          "type": "uint256"
        },
        {
          "internalType": "uint96",
          "name": "",
          "type": "uint96"
        }
      ],
      "name": "fundSubscription",
      "outputs": [],
      "stateMutability": "pure",
      "type": "function"
    },
    {
      "inputs": [
        {
          "components": [
            {
              "internalType": "bytes32",
              "name": "keyHash",
              "type": "bytes32"
            },
            {
              "internalType": "uint256",
              "name": "subId",
              "type": "uint256"
            },
            {
              "internalType": "uint16",
              "name": "requestConfirmations",
              "type": "uint16"
            },
            {
              "internalType": "uint32",
              "name": "callbackGasLimit",
              "type": "uint32"
            },
            {
              "internalType": "uint32",
              "name": "numWords",
              "type": "uint32"
            },
            {
              "internalType": "bytes",
              "name": "extraArgs",
              "type": "bytes"
            }
          ],
          "internalType": "struct VRFV2PlusClient.RandomWordsRequest",
          "name": "req",
          "type": "tuple"
        }
      ],
      "name": "requestRandomWords",
      "outputs": [
        {
          "internalType": "uint256",
          "name": "requestId",
          "type": "uint256"
        }
      ],
      "stateMutability": "nonpayable",
      "type": "function"
    }
  ],
  "bytecode": "0x60c0604052600160005534801561001557600080fd5b50604051610c2e380380610c2e83398101604081905261003491610067565b6001600160601b039182166080521660a05261009a565b80516001600160601b038116811461006257600080fd5b919050565b6000806040838503121561007a57600080fd5b6100838361004b565b91506100916020840161004b565b90509250929050565b60805160a051610b706100be60003960006101490152600060b20152610b706000f3fe608060405234801561001057600080fd5b50600436106100935760003560e01c80639b1c385e116100665780639b1c385e1461011b578063a21a23e41461013c578063a410347f14610144578063b2a7cac51461016b578063bec4c08c1461017c57600080fd5b806308e3898e146100985780633d18651e146100ad5780634cf94d87146100f6578063808974ff14610108575b600080fd5b6100ab6100a63660046105de565b61018f565b005b6100d47f000000000000000000000000000000000000000000000000000000000000000081565b6040516bffffffffffffffffffffffff90911681526020015b60405180910390f35b6100ab6101043660046106b8565b5050565b6100ab6101163660046106f9565b610457565b61012e610129366004610725565b610473565b6040519081526020016100ed565b61012e61052f565b6100d47f000000000000000000000000000000000000000000000000000000000000000081565b6100ab610179366004610767565b50565b6100ab61018a3660046106f9565b61056a565b6000838152600160208181526040808420815160c081018352815481529381015492840192909252600282015461ffff81169184019190915263ffffffff62010000820481166060850152660100000000000090910416608083015260038101805460a08401919061020090610780565b80601f016020809104026020016040519081016040528092919081815260200182805461022c90610780565b80156102795780601f1061024e57610100808354040283529160200191610279565b820191906000526020600020905b81548152906001019060200180831161025c57829003601f168201915b50505050508152505090506000829050805160000361034a57816080015163ffffffff1667ffffffffffffffff8111156102b5576102b56105c8565b6040519080825280602002602001820160405280156102de578160200160208202803683370190505b50905060005b826080015163ffffffff168110156103485760408051602081018890529081018290526060016040516020818303038152906040528051906020012060001c828281518110610335576103356107ba565b60209081029190910101526001016102e4565b505b600080631fe543e360e01b87846040516024016103689291906107d0565b604051602081830303815290604052906001600160e01b0319166020820180516001600160e01b03838183161783525050505090506000866001600160a01b0316856060015163ffffffff16836040516103c29190610820565b60006040518083038160008787f1925050503d8060008114610400576040519150601f19603f3d011682016040523d82523d6000602084013e610405565b606091505b5050604080518a81526000602082015282151581830152905191925089917f7dffc5ae5ee4e2e4df1651cf6ad329a73cebdb728f37ea0187b9b17e036756e49181900360600190a25050505050505050565b604080516000815260208101909152610104908390839061018f565b6000805481806104828361084f565b90915550600081815260016020526040902090915082906104a382826109f8565b50339050602083013583357feb0e3652e0f44f417695e6e90f2f42c99b65cd7169074c5a654b16b9748c3a4e8460646104e26060890160408a01610a9d565b6104f260808a0160608b01610aba565b61050260a08b0160808c01610aba565b61050f60a08c018c610898565b6040516105229796959493929190610ad7565b60405180910390a4919050565b60405133815260019081907f1d3015d7ba850fa198dc7b1a3f5d42779313a681035f77c8c03764c61005518d9060200160405180910390a290565b6040516001600160a01b038216815282907f4e5aab67fb6878a7c5437d638d002992f2b503107c053f38483f6b29494874939060200160405180910390a25050565b80356001600160a01b03811681146105c357600080fd5b919050565b634e487b7160e01b600052604160045260246000fd5b6000806000606084860312156105f357600080fd5b8335925060206106048186016105ac565b9250604085013567ffffffffffffffff8082111561062157600080fd5b818701915087601f83011261063557600080fd5b813581811115610647576106476105c8565b8060051b604051601f19603f8301168101818110858211171561066c5761066c6105c8565b60405291825284820192508381018501918a83111561068a57600080fd5b938501935b828510156106a85784358452938501939285019261068f565b8096505050505050509250925092565b600080604083850312156106cb57600080fd5b8235915060208301356bffffffffffffffffffffffff811681146106ee57600080fd5b809150509250929050565b6000806040838503121561070c57600080fd5b8235915061071c602084016105ac565b90509250929050565b60006020828403121561073757600080fd5b813567ffffffffffffffff81111561074e57600080fd5b820160c0818503121561076057600080fd5b9392505050565b60006020828403121561077957600080fd5b5035919050565b600181811c9082168061079457607f821691505b6020821081036107b457634e487b7160e01b600052602260045260246000fd5b50919050565b634e487b7160e01b600052603260045260246000fd5b60006040820184835260206040602085015281855180845260608601915060208701935060005b81811015610813578451835293830193918301916001016107f7565b5090979650505050505050565b6000825160005b818110156108415760208186018101518583015201610827565b506000920191825250919050565b60006001820161086f57634e487b7160e01b600052601160045260246000fd5b5060010190565b61ffff8116811461017957600080fd5b63ffffffff8116811461017957600080fd5b6000808335601e198436030181126108af57600080fd5b83018035915067ffffffffffffffff8211156108ca57600080fd5b6020019150368190038213156108df57600080fd5b9250929050565b601f821115610932576000816000526020600020601f850160051c8101602086101561090f5750805b601f850160051c820191505b8181101561092e5782815560010161091b565b5050505b505050565b67ffffffffffffffff83111561094f5761094f6105c8565b6109638361095d8354610780565b836108e6565b6000601f841160018114610997576000851561097f5750838201355b600019600387901b1c1916600186901b1783556109f1565b600083815260209020601f19861690835b828110156109c857868501358255602094850194600190920191016109a8565b50868210156109e55760001960f88860031b161c19848701351681555b505060018560011b0183555b5050505050565b8135815560208201356001820155600281016040830135610a1881610876565b81546060850135610a2881610886565b6080860135610a3681610886565b69ffffffff0000000000008160301b1669ffffffff0000000000001961ffff86161669ffffffffffffffffffff1985161765ffffffff00008460101b16171785555050505050610a8960a0830183610898565b610a97818360038601610937565b50505050565b600060208284031215610aaf57600080fd5b813561076081610876565b600060208284031215610acc57600080fd5b813561076081610886565b87815286602082015261ffff86166040820152600063ffffffff808716606084015280861660808401525060c060a08301528260c0830152828460e0840137600060e0848401015260e0601f19601f85011683010190509897505050505050505056fea2646970667358221220bcbe2d4f2d70927f9050ce965e132b13f9b13128d6012631ea42640b3d2a071364736f6c63430008180033",
  "linkReferences": {},
  "deployedLinkReferences": {}
}