{
  "_format": "hh-sol-artifact-1",
  "contractName": "ReentrancyAttacker",
  "sourceName": "contracts/mocks/ReentrancyAttacker.sol",
  "abi": [
    {
      "inputs": [
        {
          "internalType": "address",
          "name": "_raffle",
          "type": "address"
        }
      ],
      "stateMutability": "nonpayable",
      "type": "constructor"
    },
    {
      "inputs": [],
      "name": "attack",
      "outputs": [],
      "stateMutability": "payable",
      "type": "function"
    },
    {
      "inputs": [],
      "name": "entranceFee",
      "outputs": [
        {
          "internalType": "uint256",
          "name": "",
          "type": "uint256"
        }
      ],
      "stateMutability": "view",
      "type": "function"
    },
    {
      "inputs": [],
      "name": "raffle",
      "outputs": [
        {
          "internalType": "contract Raffle",
          "name": "",
          "type": "address"
        }
      ],
      "stateMutability": "view",
      "type": "function"
    },
    {
      "stateMutability": "payable",
      "type": "receive"
    }
  ],
  "bytecode": "0x608060405234801561001057600080fd5b506040516102a23803806102a283398101604081905261002f916100b5565b600080546001600160a01b0319166001600160a01b038316908117909155604080516309bc33a760e01b815290516309bc33a7916004808201926020929091908290030181865afa158015610088573d6000803e3d6000fd5b505050506040513d601f19601f820116820180604052508101906100ac91906100e5565b600155506100fe565b6000602082840312156100c757600080fd5b81516001600160a01b03811681146100de57600080fd5b9392505050565b6000602082840312156100f757600080fd5b5051919050565b6101958061010d6000396000f3fe6080604052600436106100385760003560e01c806333c1420a1461009c578063649677e1146100d95780639e5faafc146100fd57600080fd5b36610097576000805460015460408051633b72a45360e21b815290516001600160a01b039093169363edca914c9360048084019382900301818588803b15801561008157600080fd5b505af1158015610095573d6000803e3d6000fd5b005b600080fd5b3480156100a857600080fd5b506000546100bc906001600160a01b031681565b6040516001600160a01b0390911681526020015b60405180910390f35b3480156100e557600080fd5b506100ef60015481565b6040519081526020016100d0565b6100956000805460015460408051633b72a45360e21b815290516001600160a01b039093169363edca914c9360048084019382900301818588803b15801561014457600080fd5b505af1158015610158573d6000803e3d6000fd5b505050505056fea2646970667358221220d5b4db8ecc2ea99738067c98ede2335a7f0dc2d7cc9bde413dec84f85bf7646664736f6c63430008180033",
  "linkReferences": {},
  "deployedLinkReferences": {}
}