{
  "_format": "hh-sol-artifact-1",
  "contractName": "Raffle",
  "sourceName": "contracts/Raffle.sol",
  "abi": [
    {
      "inputs": [
        {
          "internalType": "uint256",
          "name": "entranceFee",
          "type": "uint256"
        },
        {
          "internalType": "uint256",
          "name": "interval",
          "type": "uint256"
        },
        {
          "internalType": "uint256",
          "name": "maxTickets",
          "type": "uint256"
        },
        {
          "internalType": "address",
          "name": "vrfCoordinatorV2",
          "type": "address"
        },
        {
          "internalType": "bytes32",
          "name": "gasLane",
          "type": "bytes32"
        },
        {
          "internalType": "uint256",
          "name": "subscriptionId",
          "type": "uint256"
        },
        {
          "internalType": "uint32",
          "name": "callbackGasLimit",
          "type": "uint32"
        },
        {
          "internalType": "address",
          "name": "houseAddress",
          "type": "address"
        },
        {
          "internalType": "address",
          "name": "rewardToken",
          "type": "address"
        },
        {
          "internalType": "uint32",
          "name": "numWinners",
          "type": "uint32"
        }
      ],
      "stateMutability": "nonpayable",
      "type": "constructor"
    },
    {
      "inputs": [
        {
          "internalType": "address",
          "name": "have",
          "type": "address"
        },
        {
          "internalType": "address",
          "name": "want",
          "type": "address"
        }
      ],
      "name": "OnlyCoordinatorCanFulfill",
      "type": "error"
    },
    {
      "inputs": [
        {
          "internalType": "address",
          "name": "have",
          "type": "address"
        },
        {
          "internalType": "address",
          "name": "owner",
          "type": "address"
        },
        {
          "internalType": "address",
          "name": "coordinator",
          "type": "address"
        }
      ],
      "name": "OnlyOwnerOrCoordinator",
      "type": "error"
    },
    {
      "inputs": [],
      "name": "OnlySimulatedBackend",
      "type": "error"
    },
    {
      "inputs": [],
      "name": "Raffle__MaxTicketsReached",
      "type": "error"
    },
    {
      "inputs": [],
      "name": "Raffle__NotEnoughEthEntered",
      "type": "error"
    },
    {
      "inputs": [],
      "name": "Raffle__RaffleNotOpen",
      "type": "error"
    },
    {
      "inputs": [],
      "name": "Raffle__TransferFailed",
      "type": "error"
    },
    {
      "inputs": [
        {
          "internalType": "uint256",
          "name": "currentBalance",
          "type": "uint256"
        },
        {
          "internalType": "uint256",
          "name": "numPlayers",
          "type": "uint256"
        },
        {
          "internalType": "uint256",
          "name": "raffleState",
          "type": "uint256"
        }
      ],
      "name": "Raffle__UpkeepNotNeeded",
      "type": "error"
    },
    {
      "inputs": [],
      "name": "ReentrancyGuardReentrantCall",
      "type": "error"
    },
    {
      "inputs": [
        {
          "internalType": "address",
          "name": "token",
          "type": "address"
        }
      ],
      "name": "SafeERC20FailedOperation",
      "type": "error"
    },
    {
      "inputs": [],
      "name": "ZeroAddress",
      "type": "error"
    },
    {
      "anonymous": false,
      "inputs": [
        {
          "indexed": true,
          "internalType": "address",
          "name": "from",
          "type": "address"
        },
        {
          "indexed": true,
          "internalType": "address",
          "name": "to",
          "type": "address"
        }
      ],
      "name": "OwnershipTransferRequested",
      "type": "event"
    },
    {
      "anonymous": false,
      "inputs": [
        {
          "indexed": true,
          "internalType": "address",
          "name": "from",
          "type": "address"
        },
        {
          "indexed": true,
          "internalType": "address",
          "name": "to",
          "type": "address"
        }
      ],
      "name": "OwnershipTransferred",
      "type": "event"
    },
    {
      "anonymous": false,
      "inputs": [
        {
          "indexed": true,
          "internalType": "address",
          "name": "player",
          "type": "address"
        }
      ],
      "name": "RaffleEnter",
      "type": "event"
    },
    {
      "anonymous": false,
      "inputs": [
        {
          "indexed": true,
          "internalType": "uint256",
          "name": "requestId",
          "type": "uint256"
        }
      ],
      "name": "RequestedRaffleWinner",
      "type": "event"
    },
    {
      "anonymous": false,
      "inputs": [
        {
          "indexed": true,
          "internalType": "address",
          "name": "winner",
          "type": "address"
        },
        {
          "indexed": false,
          "internalType": "uint256",
          "name": "amount",
          "type": "uint256"
        }
      ],
      "name": "WinnerPicked",
      "type": "event"
    },
    {
      "anonymous": false,
      "inputs": [
        {
          "indexed": false,
          "internalType": "address[]",
          "name": "winners",
          "type": "address[]"
        },
        {
          "indexed": false,
          "internalType": "uint256[]",
          "name": "amounts",
          "type": "uint256[]"
        }
      ],
      "name": "WinnersPicked",
      "type": "event"
    },
    {
      "inputs": [],
      "name": "acceptOwnership",
      "outputs": [],
      "stateMutability": "nonpayable",
      "type": "function"
    },
    {
      "inputs": [],
      "name": "buyTicket",
      "outputs": [],
      "stateMutability": "payable",
      "type": "function"
    },
    {
      "inputs": [
        {
          "internalType": "address",
          "name": "player",
          "type": "address"
        }
      ],
      "name": "buyTicketFor",
      "outputs": [],
      "stateMutability": "payable",
      "type": "function"
    },
    {
      "inputs": [
        {
          "internalType": "bytes",
          "name": "",
          "type": "bytes"
        }
      ],
      "name": "checkUpkeep",
      "outputs": [
        {
          "internalType": "bool",
          "name": "upkeepNeeded",
          "type": "bool"
        },
        {
          "internalType": "bytes",
          "name": "",
          "type": "bytes"
        }
      ],
      "stateMutability": "view",
      "type": "function"
    },
    {
      "inputs": [],
      "name": "getEntranceFee",
      "outputs": [
        {
          "internalType": "uint256",
          "name": "",
          "type": "uint256"
        }
      ],
      "stateMutability": "view",
      "type": "function"
    },
    {
      "inputs": [],
      "name": "getInterval",
      "outputs": [
        {
          "internalType": "uint256",
          "name": "",
          "type": "uint256"
        }
      ],
      "stateMutability": "view",
      "type": "function"
    },
    {
      "inputs": [],
      "name": "getLastTimeStamp",
      "outputs": [
        {
          "internalType": "uint256",
          "name": "",
          "type": "uint256"
        }
      ],
      "stateMutability": "view",
      "type": "function"
    },
    {
      "inputs": [],
      "name": "getMaxTickets",
      "outputs": [
        {
          "internalType": "uint256",
          "name": "",
          "type": "uint256"
        }
      ],
      "stateMutability": "view",
      "type": "function"
    },
    {
      "inputs": [],
      "name": "getNumPlayers",
      "outputs": [
        {
          "internalType": "uint256",
          "name": "",
          "type": "uint256"
        }
      ],
      "stateMutability": "view",
      "type": "function"
    },
    {
      "inputs": [],
      "name": "getNumWinners",
      "outputs": [
        {
          "internalType": "uint32",
          "name": "",
          "type": "uint32"
        }
      ],
      "stateMutability": "view",
      "type": "function"
    },
    {
      "inputs": [
        {
          "internalType": "uint256",
          "name": "index",
          "type": "uint256"
        }
      ],
      "name": "getPlayer",
      "outputs": [
        {
          "internalType": "address",
          "name": "",
          "type": "address"
        }
      ],
      "stateMutability": "view",
      "type": "function"
    },
    {
      "inputs": [],
      "name": "getRaffleState",
      "outputs": [
        {
          "internalType": "enum Raffle.RaffleState",
          "name": "",
          "type": "uint8"
        }
      ],
      "stateMutability": "view",
      "type": "function"
    },
    {
      "inputs": [],
      "name": "getRecentWinner",
      "outputs": [
        {
          "internalType": "address",
          "name": "",
          "type": "address"
        }
      ],
      "stateMutability": "view",
      "type": "function"
    },
    {
      "inputs": [],
      "name": "getRewardToken",
      "outputs": [
        {
          "internalType": "address",
          "name": "",
          "type": "address"
        }
      ],
      "stateMutability": "view",
      "type": "function"
    },
    {
      "inputs": [],
      "name": "owner",
      "outputs": [
        {
          "internalType": "address",
          "name": "",
          "type": "address"
        }
      ],
      "stateMutability": "view",
      "type": "function"
    },
    {
      "inputs": [
        {
          "internalType": "bytes",
          "name": "",
          "type": "bytes"
        }
      ],
      "name": "performUpkeep",
      "outputs": [],
      "stateMutability": "nonpayable",
      "type": "function"
    },
    {
      "inputs": [
        {
          "internalType": "uint256",
          "name": "requestId",
          "type": "uint256"
        },
        {
          "internalType": "uint256[]",
          "name": "randomWords",
          "type": "uint256[]"
        }
      ],
      "name": "rawFulfillRandomWords",
      "outputs": [],
      "stateMutability": "nonpayable",
      "type": "function"
    },
    {
      "inputs": [],
      "name": "s_vrfCoordinator",
      "outputs": [
        {
          "internalType": "contract IVRFCoordinatorV2Plus",
          "name": "",
          "type": "address"
        }
      ],
      "stateMutability": "view",
      "type": "function"
    },
    {
      "inputs": [
        {
          "internalType": "address",
          "name": "_vrfCoordinator",
          "type": "address"
        }
      ],
      "name": "setCoordinator",
      "outputs": [],
      "stateMutability": "nonpayable",
      "type": "function"
    },
    {
      "inputs": [
        {
          "internalType": "address",
          "name": "to",
          "type": "address"
        }
      ],
      "name": "transferOwnership",
      "outputs": [],
      "stateMutability": "nonpayable",
      "type": "function"
    }
  ],
  "bytecode": "0x6101806040523480156200001257600080fd5b506040516200222a3803806200222a833981016040819052620000359162000227565b8633806000816200008d5760405162461bcd60e51b815260206004820152601860248201527f43616e6e6f7420736574206f776e657220746f207a65726f000000000000000060448201526064015b60405180910390fd5b600080546001600160a01b0319166001600160a01b0384811691909117909155811615620000c057620000c0816200014a565b5050600280546001600160a01b039384166001600160a01b03199182161790915560016003556101009c909c525060e0999099526101209790975260a09490945260809290925263ffffffff90811660c0526004805492871692909716919091179095559092166101605290911661014052506007805460ff60a01b1916905542600555620002c9565b336001600160a01b03821603620001a45760405162461bcd60e51b815260206004820152601760248201527f43616e6e6f74207472616e7366657220746f2073656c66000000000000000000604482015260640162000084565b600180546001600160a01b0319166001600160a01b0383811691821790925560008054604051929316917fed8889f560326eb138920d842192f0eb3dd22b4f139c87a2c57538e05bae12789190a350565b80516001600160a01b03811681146200020d57600080fd5b919050565b805163ffffffff811681146200020d57600080fd5b6000806000806000806000806000806101408b8d0312156200024857600080fd5b8a51995060208b0151985060408b015197506200026860608c01620001f5565b965060808b0151955060a08b015194506200028660c08c0162000212565b93506200029660e08c01620001f5565b9250620002a76101008c01620001f5565b9150620002b86101208c0162000212565b90509295989b9194979a5092959850565b60805160a05160c05160e05161010051610120516101405161016051611e68620003c2600039600081816102ac015281816104de0152818161055c0152818161067c015281816106be0152818161081f0152818161086c01528181610aca01528181610b1201528181611173015281816112e501526113520152600081816101d901528181610bb501528181610be701528181610d6901526116120152600081816102790152818161049f0152818161061e01526107f60152600081816101330152818161050c015261058001526000818161036001526107c0015260006115ea01526000611592015260006115b50152611e686000f3fe60806040526004361061011f5760003560e01c80636e04ff0d116100a05780639eccacf6116100645780639eccacf614610384578063c1c244e8146103a4578063e55ae4e8146103b9578063edca914c146103d9578063f2fde38b146103e157600080fd5b80636e04ff0d146102d057806379ba5097146102fe5780638da5cb5b146103135780638ea981171461033157806391ad27b41461035157600080fd5b80634585e33b116100e75780634585e33b14610203578063473f1ddc1461022357806355c9e9261461025557806362c95aa11461026a57806369940d791461029d57600080fd5b806309bc33a714610124578063115cbaf5146101665780631fe543e31461018d57806323aa56b0146101af57806339624847146101c2575b600080fd5b34801561013057600080fd5b507f00000000000000000000000000000000000000000000000000000000000000005b6040519081526020015b60405180910390f35b34801561017257600080fd5b50600754600160a01b900460ff1660405161015d91906119b1565b34801561019957600080fd5b506101ad6101a8366004611a20565b610401565b005b6101ad6101bd366004611ad2565b610454565b3480156101ce57600080fd5b5060405163ffffffff7f000000000000000000000000000000000000000000000000000000000000000016815260200161015d565b34801561020f57600080fd5b506101ad61021e366004611b02565b610658565b34801561022f57600080fd5b506007546001600160a01b03165b6040516001600160a01b03909116815260200161015d565b34801561026157600080fd5b50600854610153565b34801561027657600080fd5b507f0000000000000000000000000000000000000000000000000000000000000000610153565b3480156102a957600080fd5b507f000000000000000000000000000000000000000000000000000000000000000061023d565b3480156102dc57600080fd5b506102f06102eb366004611b74565b610790565b60405161015d929190611c4f565b34801561030a57600080fd5b506101ad61092f565b34801561031f57600080fd5b506000546001600160a01b031661023d565b34801561033d57600080fd5b506101ad61034c366004611ad2565b6109d9565b34801561035d57600080fd5b507f0000000000000000000000000000000000000000000000000000000000000000610153565b34801561039057600080fd5b5060025461023d906001600160a01b031681565b3480156103b057600080fd5b50600554610153565b3480156103c557600080fd5b5061023d6103d4366004611c72565b610a72565b6101ad610aa2565b3480156103ed57600080fd5b506101ad6103fc366004611ad2565b610aad565b6002546001600160a01b031633146104465760025460405163073e64fd60e21b81523360048201526001600160a01b0390911660248201526044015b60405180910390fd5b6104508282610abe565b5050565b61045c61149b565b6000600754600160a01b900460ff16600181111561047c5761047c61199b565b1461049a5760405163349289c560e21b815260040160405180910390fd5b6008547f0000000000000000000000000000000000000000000000000000000000000000116104dc57604051636af9e6d960e11b815260040160405180910390fd5b7f00000000000000000000000000000000000000000000000000000000000000006001600160a01b031661054f577f0000000000000000000000000000000000000000000000000000000000000000341461054a5760405163066d781f60e01b815260040160405180910390fd5b6105a4565b6105a46001600160a01b037f00000000000000000000000000000000000000000000000000000000000000001633307f00000000000000000000000000000000000000000000000000000000000000006114c5565b6008805460018101825560009182527ff3f7a9fe364faab93b216da50a3214154f22a0a2b415b23a84c8169e8b636ee30180546001600160a01b0319166001600160a01b03841690811790915560405190917f0805e1d667bddb8a95f0f09880cf94f403fb596ce79928d9f29b74203ba284d491a26008547f0000000000000000000000000000000000000000000000000000000000000000900361064b5761064b611532565b6106556001600355565b50565b600061067260405180602001604052806000815250610790565b50905080610783577f00000000000000000000000000000000000000000000000000000000000000006001600160a01b031615610736576040516370a0823160e01b81523060048201527f00000000000000000000000000000000000000000000000000000000000000006001600160a01b0316906370a0823190602401602060405180830381865afa15801561070d573d6000803e3d6000fd5b505050506040513d601f19601f820116820180604052508101906107319190611c8b565b610738565b475b600854600754600160a01b900460ff1660018111156107595761075961199b565b604051632c2193d560e11b815260048101939093526024830191909152604482015260640161043d565b61078b611532565b505050565b600060606000600760149054906101000a900460ff1660018111156107b7576107b761199b565b600014905060007f0000000000000000000000000000000000000000000000000000000000000000600554426107ed9190611cba565b600854911091507f000000000000000000000000000000000000000000000000000000000000000081101590151560007f00000000000000000000000000000000000000000000000000000000000000006001600160a01b031661085457504715156108e3565b6040516370a0823160e01b81523060048201526000907f00000000000000000000000000000000000000000000000000000000000000006001600160a01b0316906370a0823190602401602060405180830381865afa1580156108bb573d6000803e3d6000fd5b505050506040513d601f19601f820116820180604052508101906108df9190611c8b565b1190505b8480156108f4575083806108f45750825b80156108fd5750815b80156109065750805b60408051808201909152600381526203078360ec1b602082015290999098509650505050505050565b6001546001600160a01b031633146109825760405162461bcd60e51b815260206004820152601660248201527526bab9ba10313290383937b837b9b2b21037bbb732b960511b604482015260640161043d565b60008054336001600160a01b0319808316821784556001805490911690556040516001600160a01b0390921692909183917f8be0079c531659141344cd1fd0a4f28419497f9722a3daafe3b4186f6b6457e091a350565b6000546001600160a01b031633148015906109ff57506002546001600160a01b03163314155b15610a505733610a176000546001600160a01b031690565b60025460405163061db9c160e01b81526001600160a01b039384166004820152918316602483015291909116604482015260640161043d565b600280546001600160a01b0319166001600160a01b0392909216919091179055565b600060088281548110610a8757610a87611cd3565b6000918252602090912001546001600160a01b031692915050565b610aab33610454565b565b610ab56116f8565b6106558161174b565b610ac661149b565b60007f00000000000000000000000000000000000000000000000000000000000000006001600160a01b0316610afd575047610b88565b6040516370a0823160e01b81523060048201527f00000000000000000000000000000000000000000000000000000000000000006001600160a01b0316906370a0823190602401602060405180830381865afa158015610b61573d6000803e3d6000fd5b505050506040513d601f19601f82011682018060405250810190610b859190611c8b565b90505b60006064610b9783605f611ce9565b610ba19190611d16565b90506000610baf8284611cba565b905060007f000000000000000000000000000000000000000000000000000000000000000063ffffffff1660088054905010610c11577f000000000000000000000000000000000000000000000000000000000000000063ffffffff16610c15565b6008545b905060008167ffffffffffffffff811115610c3257610c326119d9565b604051908082528060200260200182016040528015610c5b578160200160208202803683370190505b50905060008267ffffffffffffffff811115610c7957610c796119d9565b604051908082528060200260200182016040528015610ca2578160200160208202803683370190505b50905082600103610d5c57600060088054905088600081518110610cc857610cc8611cd3565b6020026020010151610cda9190611d2a565b905060088181548110610cef57610cef611cd3565b600091825260208220015484516001600160a01b03909116918591610d1657610d16611cd3565b60200260200101906001600160a01b031690816001600160a01b0316815250508582600081518110610d4a57610d4a611cd3565b60200260200101818152505050611136565b826003148015610d9257507f000000000000000000000000000000000000000000000000000000000000000063ffffffff166003145b15610fc3576064610da487603c611ce9565b610dae9190611d16565b81600081518110610dc157610dc1611cd3565b60209081029190910101526064610dd987601e611ce9565b610de39190611d16565b81600181518110610df657610df6611cd3565b60209081029190910101526064610e0e876005611ce9565b610e189190611d16565b81600281518110610e2b57610e2b611cd3565b60209081029190910101526008805488518990600090610e4d57610e4d611cd3565b6020026020010151610e5f9190611d2a565b81548110610e6f57610e6f611cd3565b600091825260208220015483516001600160a01b03909116918491610e9657610e96611cd3565b6001600160a01b039092166020928302919091019091015260088054885189906001908110610ec757610ec7611cd3565b6020026020010151610ed99190611d2a565b81548110610ee957610ee9611cd3565b9060005260206000200160009054906101000a90046001600160a01b031682600181518110610f1a57610f1a611cd3565b6001600160a01b039092166020928302919091019091015260088054885189906002908110610f4b57610f4b611cd3565b6020026020010151610f5d9190611d2a565b81548110610f6d57610f6d611cd3565b9060005260206000200160009054906101000a90046001600160a01b031682600281518110610f9e57610f9e611cd3565b60200260200101906001600160a01b031690816001600160a01b031681525050611136565b6000610fcf8487611d16565b905060005b848110156111335781838281518110610fef57610fef611cd3565b602002602001018181525050885181101561109357600880548a518b908490811061101c5761101c611cd3565b602002602001015161102e9190611d2a565b8154811061103e5761103e611cd3565b9060005260206000200160009054906101000a90046001600160a01b031684828151811061106e5761106e611cd3565b60200260200101906001600160a01b031690816001600160a01b03168152505061112b565b60088080549050828b6000815181106110ae576110ae611cd3565b60200260200101516110c09190611d3e565b6110ca9190611d2a565b815481106110da576110da611cd3565b9060005260206000200160009054906101000a90046001600160a01b031684828151811061110a5761110a611cd3565b60200260200101906001600160a01b031690816001600160a01b0316815250505b600101610fd4565b50505b604080516000815260208101918290525161115391600891611907565b50426005556007805460ff60a01b191690556111716006600061196c565b7f00000000000000000000000000000000000000000000000000000000000000006001600160a01b03166112d4576004546040516000916001600160a01b03169086908381818185875af1925050503d80600081146111ec576040519150601f19603f3d011682016040523d82523d6000602084013e6111f1565b606091505b50509050806112135760405163a1d04b3960e01b815260040160405180910390fd5b60005b848110156112cd57600084828151811061123257611232611cd3565b60200260200101516001600160a01b031684838151811061125557611255611cd3565b602002602001015160405160006040518083038185875af1925050503d806000811461129d576040519150601f19603f3d011682016040523d82523d6000602084013e6112a2565b606091505b50509050806112c45760405163a1d04b3960e01b815260040160405180910390fd5b50600101611216565b5050611393565b60045461130e906001600160a01b037f000000000000000000000000000000000000000000000000000000000000000081169116866117f4565b60005b838110156113915761138983828151811061132e5761132e611cd3565b602002602001015183838151811061134857611348611cd3565b60200260200101517f00000000000000000000000000000000000000000000000000000000000000006001600160a01b03166117f49092919063ffffffff16565b600101611311565b505b7ffc49ebbec72d32bd8b287a8ec3c43bf2c1d47fb9b36867819560bcf3c320901382826040516113c4929190611d51565b60405180910390a1821561148b57816000815181106113e5576113e5611cd3565b6020026020010151600760006101000a8154816001600160a01b0302191690836001600160a01b031602179055508160008151811061142657611426611cd3565b60200260200101516001600160a01b03167f64791dbae5677392ba76761a5273633cec8f1d9d8cfe808da7bac6ef16a880be8260008151811061146b5761146b611cd3565b602002602001015160405161148291815260200190565b60405180910390a25b5050505050506104506001600355565b6002600354036114be57604051633ee5aeb560e01b815260040160405180910390fd5b6002600355565b6040516001600160a01b03848116602483015283811660448301526064820183905261152c9186918216906323b872dd906084015b604051602081830303815290604052915060e01b6020820180516001600160e01b038381831617835250505050611825565b50505050565b6000600754600160a01b900460ff1660018111156115525761155261199b565b146115705760405163349289c560e21b815260040160405180910390fd5b6007805460ff60a01b1916600160a01b1790556002546040805160c0810182527f000000000000000000000000000000000000000000000000000000000000000081527f000000000000000000000000000000000000000000000000000000000000000060208083019190915260038284015263ffffffff7f0000000000000000000000000000000000000000000000000000000000000000811660608401527f00000000000000000000000000000000000000000000000000000000000000001660808301528251908101909252600182526000926001600160a01b031691639b1c385e919060a082019061166590611896565b8152506040518263ffffffff1660e01b81526004016116849190611dd5565b6020604051808303816000875af11580156116a3573d6000803e3d6000fd5b505050506040513d601f19601f820116820180604052508101906116c79190611c8b565b60405190915081907fcd6e45c8998311cab7e9d4385596cac867e20a0587194b954fa3a731c93ce78b90600090a250565b6000546001600160a01b03163314610aab5760405162461bcd60e51b815260206004820152601660248201527527b7363c9031b0b63630b1363290313c9037bbb732b960511b604482015260640161043d565b336001600160a01b038216036117a35760405162461bcd60e51b815260206004820152601760248201527f43616e6e6f74207472616e7366657220746f2073656c66000000000000000000604482015260640161043d565b600180546001600160a01b0319166001600160a01b0383811691821790925560008054604051929316917fed8889f560326eb138920d842192f0eb3dd22b4f139c87a2c57538e05bae12789190a350565b6040516001600160a01b0383811660248301526044820183905261078b91859182169063a9059cbb906064016114fa565b600080602060008451602086016000885af180611848576040513d6000823e3d81fd5b50506000513d9150811561186057806001141561186d565b6001600160a01b0384163b155b1561152c57604051635274afe760e01b81526001600160a01b038516600482015260240161043d565b60607f92fd13387c7fe7befbc38d303d6468778fb9731bc4583f17d92989c6fcfdeaaa826040516024016118cf91511515815260200190565b60408051601f198184030181529190526020810180516001600160e01b03166001600160e01b03199093169290921790915292915050565b82805482825590600052602060002090810192821561195c579160200282015b8281111561195c57825182546001600160a01b0319166001600160a01b03909116178255602090920191600190910190611927565b50611968929150611986565b5090565b508054600082559060005260206000209081019061065591905b5b808211156119685760008155600101611987565b634e487b7160e01b600052602160045260246000fd5b60208101600283106119d357634e487b7160e01b600052602160045260246000fd5b91905290565b634e487b7160e01b600052604160045260246000fd5b604051601f8201601f1916810167ffffffffffffffff81118282101715611a1857611a186119d9565b604052919050565b60008060408385031215611a3357600080fd5b8235915060208084013567ffffffffffffffff80821115611a5357600080fd5b818601915086601f830112611a6757600080fd5b813581811115611a7957611a796119d9565b8060051b9150611a8a8483016119ef565b8181529183018401918481019089841115611aa457600080fd5b938501935b83851015611ac257843582529385019390850190611aa9565b8096505050505050509250929050565b600060208284031215611ae457600080fd5b81356001600160a01b0381168114611afb57600080fd5b9392505050565b60008060208385031215611b1557600080fd5b823567ffffffffffffffff80821115611b2d57600080fd5b818501915085601f830112611b4157600080fd5b813581811115611b5057600080fd5b866020828501011115611b6257600080fd5b60209290920196919550909350505050565b60006020808385031215611b8757600080fd5b823567ffffffffffffffff80821115611b9f57600080fd5b818501915085601f830112611bb357600080fd5b813581811115611bc557611bc56119d9565b611bd7601f8201601f191685016119ef565b91508082528684828501011115611bed57600080fd5b8084840185840137600090820190930192909252509392505050565b6000815180845260005b81811015611c2f57602081850181015186830182015201611c13565b506000602082860101526020601f19601f83011685010191505092915050565b8215158152604060208201526000611c6a6040830184611c09565b949350505050565b600060208284031215611c8457600080fd5b5035919050565b600060208284031215611c9d57600080fd5b5051919050565b634e487b7160e01b600052601160045260246000fd5b81810381811115611ccd57611ccd611ca4565b92915050565b634e487b7160e01b600052603260045260246000fd5b8082028115828204841417611ccd57611ccd611ca4565b634e487b7160e01b600052601260045260246000fd5b600082611d2557611d25611d00565b500490565b600082611d3957611d39611d00565b500690565b80820180821115611ccd57611ccd611ca4565b604080825283519082018190526000906020906060840190828701845b82811015611d935781516001600160a01b031684529284019290840190600101611d6e565b5050508381038285015284518082528583019183019060005b81811015611dc857835183529284019291840191600101611dac565b5090979650505050505050565b60208152815160208201526020820151604082015261ffff60408301511660608201526000606083015163ffffffff80821660808501528060808601511660a0850152505060a083015160c080840152611c6a60e0840182611c0956fea2646970667358221220cd7153ca408bdf0ff4a22ae7abbfa8076008e9b53501b3cb19d2004956464c5064736f6c63430008180033",
  "linkReferences": {},
  "deployedLinkReferences": {}
}